:020000040000FA
:1000000080DA0420A93E00008DBF00007D3E000084
:100010007D3E00007D3E00007D3E00007D3E0000F4
:10002000000000000000000000000000D53A0000C1
:100030007D3E0000000000006D3A00007D3E0000A3
:10004000613B0000613B0000613B0000613B000040
:10005000613B0000613B0000613B0000613B000030
:10006000613B0000613B0000613B0000613B000020
:10007000613B0000613B0000613B0000613B000010
:10008000613B0000613B0000613B0000613B000000
:10009000613B0000613B0000613B0000613B0000F0
:1000A000613B0000613B0000613B0000613B0000E0
:1000B000613B0000613B0000613B0000613B0000D0
:1000C000613B0000613B0000613B0000613B0000C0
:1000D000613B0000613B0000613B0000613B0000B0
:1000E000613B0000613B0000613B0000613B0000A0
:1000F000613B0000613B0000613B0000613B000090
:10010000613B0000613B0000613B0000613B00007F
:10011000613B0000613B0000613B0000613B00006F
:10012000613B0000613B0000613B0000613B00005F
:10013000613B0000613B0000613B0000613B00004F
:10014000613B0000613B0000613B0000613B00003F
:10015000613B000053B94AB9002908BF00281CBF01
:100160004FF0FF314FF0FF3000F00CB8ADF1080C4C
:100170006DE904CE00F008F8DDF804E0DDE90223C3
:1001800004B07047704700BF2DE9F04786468C46A3
:100190000846089E154674461946002B40F0C1805B
:1001A0008542B2FA82F245D94AB1C2F1200300FA7F
:1001B00002FC954094402EFA03F343EA0C0C4FEAFC
:1001C000154EA8B2230CBCFBFEF80EFB18CC08FBA6
:1001D00000F943EA0C43994528D9EB1808F1FF3799
:1001E00004D2994502D9A8F102072B44A3EB0903D5
:1001F000A4B2B3FBFEFC0EFB1C330CFB00F044EA84
:100200000344A04214D92C190CF1FF3304D2A042AC
:1002100002D9ACF102032C44241A43EA07401EB170
:10022000D440002334607360BDE8F0874746DDE7C3
:100230006346F1E792BB431B01214FEA154EAFB273
:10024000200CB3FBFEFC0EFB1C330CFB07F840EA52
:100250000343984561D9EB180CF1FF3004D298455F
:1002600002D9ACF102002B44A3EB0803A4B2B3FB08
:10027000FEFC0EFB1C330CFB07F744EA0344A742C9
:100280004DD92C190CF1FF3304D2A74202D9ACF19D
:1002900002032C44E41B43EA0040C0E7C2F1200300
:1002A0009540944020FA03F12EFA03F34FEA154EDD
:1002B0009040AFB20343B1FBFEFC0EFB1C10190CC7
:1002C0000CFB07F841EA0041884522D969180CF176
:1002D000FF3004D2884502D9ACF102002944A1EBD9
:1002E00008019BB2B1FBFEFC0EFB1C110CFB07F7D7
:1002F00043EA01439F420ED9EB180CF1FF3104D2BF
:100300009F4202D9ACF102012B44DB1B41EA0041C0
:1003100093E76046E3E76146F7E76046A4E7634694
:10032000B8E7834206D916B9002108467CE7C6E93A
:1003300000E0F9E7B3FA83F78FB9834201D372453E
:1003400008D8BEEB020460EB030301209C461EB9F3
:10035000002169E73846FAE7C6E9004CF8E7C7F13B
:10036000200CBB400EFA07F522FA0CF42EFA0CF121
:10037000BA401C4320FA0CF3B8404FEA1449014339
:100380001FFA84FEB3FBF9F809FB18300B0C08FBCD
:100390000EFA43EA00439A4540D9E31808F1FF30CA
:1003A00004D29A4502D9A8F102002344A3EB0A0320
:1003B00089B2B3FBF9F809FB183308FB0EFE41EADA
:1003C00003418E452CD9611808F1FF3304D28E45C4
:1003D00002D9A8F10203214443EA0040A1EB0E0137
:1003E000A0FB02984145CE46434602D306D14D4577
:1003F00004D20138B9EB020E68EB0403002EA7D03B
:10040000B5EB0E0261EB030101FA0CFC22FA07F3D3
:10041000F9404CEA0303C6E9003199E74046C5E7D5
:100420004346D9E7034613F8012B002AFBD1181ADB
:1004300001387047F0B5414B414A85B0C2F80036EB
:10044000C2F80436C2F80836C2F80C36C2F81036C4
:10045000C2F81436C2F81836C2F81C3602F58052BB
:10046000C2F80036C2F80436C2F80836C2F80C36B4
:10047000C2F81036C2F81436C2F81836C2F81C3664
:1004800000F08AF82F4C20460EF0FAFD00B32569E3
:10049000A6682B68082143F480732B6020463368DC
:1004A000294A98472046736801A9984720B92A68C5
:1004B000019B5340DA050BD54FF05023D3F800349D
:1004C0000BB1DB0704D502F0CDFD204803F0B0F9F5
:1004D00001A800F04FFF1E4B1B68834200D0FEE7CF
:1004E00069469DF808000AF045FD044628B1F2214E
:1004F000184B194A19480AF0AFFA009B039D1D4496
:10050000019B1E8906F010F8AF1901F0E9FD00F01B
:100510005BFF00F03DFF03F009FD84F30B8884F3DB
:100520000A88AB5983F3088884F31488BFF36F8F6C
:10053000BFF36F8F7B689847FEE700BF3546526E6A
:100540000080015064F9000011000100F8FC000077
:10055000D82700201C0301005603010024030100DA
:1005600021B1012906D06FF015007047044B53F8F4
:1005700030007047024B03EBC0035868704700BF60
:1005800000FD000004289ABF024B18566FF01500BA
:10059000704700BF5E0301004FF4C051014806F0F0
:1005A00019BB00BFA66600202DE9F04FDFF8D0B1DF
:1005B000F9B038A8DDE9848916461C46829FDBF82D
:1005C00000500DF0C6FE002138A806F017FCB8F167
:1005D000000F07D0B9F1000F04DD4A46414638A8A4
:1005E0000DF0BBFE4FF0000833897289D6F80CA0DD
:1005F00013449A44C2454CD80DA938A80DF0F1FE19
:10060000869B5BB10DAF0DF1540C3A4603CA6245AF
:1006100018605960174603F10803F6D100232246FB
:10062000009331464FF6FF7307A80AF0C4FC8046DA
:1006300060BB20460C9E0AF05FFD864226D84FF034
:10064000FF37DFF840910DF1160305AA06A907A8A8
:100650000AF0FFFC002819DB40F08A80BDF8166024
:10066000102E2ED1BDF81460202E0FD13346204617
:10067000069938AA0BF090FA40B9324638A90DA86D
:100680000AF033FD404B1B68834217D0DBF8005063
:1006900071E0839BAAEB0809994528BF99463A4621
:1006A0004B46414620460BF077FA0028EED14A46E9
:1006B000394638A80DF051FEC8449BE74FF00108B9
:1006C000C1E7012E35D1BDF81430202BDED82046ED
:1006D000069938AA0BF060FA07460028D6D19DF893
:1006E00014A0BAF1200F02D94FF0FF37ABE7D9F8C9
:1006F0000030264E0393039B9F42F5DA1DA80DF0B0
:1007000028FE00211DA806F079FB72681DA812685A
:1007100056F8081B0DF021FE15A91DA80DF061FE6D
:10072000524638A915A80FF031F800288BD00137B0
:10073000E1E7202E87D17B1C85D0D9F80030BB4261
:10074000D2DDBDF81430B3F5807F9FD120460699E5
:1007500038AA0BF021FA002898D1FFB23146BDF833
:100760001430009738AA0DA800F012F80546BBE730
:10077000B8F1000F8AD0284679B0BDE8F08F00BFED
:10078000B820002010FD0000D827002014FD000034
:100790002DE9F04FDFF8D4A1ADF54D7D074629A82E
:1007A0001E469DF858B389469046DAF800500DF081
:1007B00091FD0422012129A806F09CFA6C4B8CAA19
:1007C00053F83B4003EBCB035B6804941B6804A81D
:1007D0001C44214630230CF0AFFB002840F0BE80C3
:1007E000049B8C9A13449C4240F0B88021462BAA6B
:1007F00004A80CF0B5FB002840F0B0800DF1B80B58
:100800005A46214604A80CF0ABFB0390002840F0A8
:10081000A5802BA80CF09BFC049A2A90944240F0EF
:100820009D80039BCDF804B01A4600932BA929A8FC
:100830000DF00DFD002840F0918029A806F070FA17
:10084000002840F08B802BA80CF081FC2A9029A86E
:100850000DF044FD864240F08180B6F5807FDAF8E5
:1008600000507BD1B9F1200F78D141468CAA29A83C
:1008700006F07CFA0446002870D19DF82F33BC2B7B
:100880006CD1DF2605900DF5A8790EA80DF061FD5D
:1008900000210EA806F0B2FA20220DF20F310EA8A8
:1008A0000DF05BFD042205A90EA80DF056FD06A96A
:1008B0000EA80DF096FD202EB046A8BF4FF02008E0
:1008C0009DF8173048460133424606A9A6EB0806B4
:1008D0008DF817300EF09FFF002EC144D5DC54ABCD
:1008E000184600219C468CAA067812F801EB0131CB
:1008F00086EA0E06DF2900F8016BF5D11A7802F0BE
:100900007F021A7013F8016B46BB0134BE2CF9D17B
:100910009CF8BE30012B21D10EA80DF01AFD3146F6
:100920000EA806F06BFA082212490EA80DF015FD6C
:10093000394620220EA80DF010FD20220DF20F21C5
:100940000EA80DF00AFD06A90EA80DF04AFD202202
:100950000DF20F3106A80AF0C8FB054629A80DF0D4
:10096000BFFC28460DF54D7DBDE8F08FB820002076
:1009700014FD00006303010010B504460BF04AF9B2
:100980004FF440734343A0683033834205D9B92103
:10099000034B044A04480AF05FF8C01A10BD00BFB8
:1009A0006B030100D503010094030100034637B532
:1009B0004FF48072084693F8B840134901926200E0
:1009C00051F82250A8420ED1582101FB043201FBFC
:1009D0000434526A283401A901F086F808B9019B51
:1009E000236003B030BD013251F82220904208D17B
:1009F000582101FB043201FB0433126D03F154044E
:100A0000E9E70120EDE700BF1CFD000070B590F89C
:100A1000B850104E6D0056F825100446FFF7C6FF7B
:100A200098B9013556F825102046FFF7BFFF054657
:100A300068B9582294F8B83002FB0343186A0BF0E7
:100A4000E9F8C4F8B400284670BD0125FBE7092584
:100A5000F9E700BF1CFD00002DE9F04F564B89B0AF
:100A6000044690F8B8000E461D68FFF779FD06A908
:100A70008046C0B201F010F800286FD194F8B87029
:100A800031463846FFF76CFD4FF02C0907A9C0B27C
:100A900009FB06F901F000F8002845D04FF0580B8B
:100AA0002C220BFB07F302FB063323441B6913F0D4
:100AB000100A4ED1314694F8B80005F00DFE0546F7
:100AC0003E4B1B68984212D14FF4807307FB0B9288
:100AD0000193CDE903AA3A4BCDF808A00093504604
:100AE000069B94F8B8102244FFF75EFD05462C23C0
:100AF0004FF0580C73430CFB07373249E219E759A2
:100B000006988F420AD1D1681289521806D281689C
:100B10008A4203D22C4A1268AA4223D0CEB10021C5
:100B200082680BF063F814E007980BF07AF805463A
:100B300007980BF030F8582394F8B82002FB039381
:100B400023445A1E033312F8011FA942A6D19A4228
:100B5000F9D11E4B1D6806980BF01DF8284609B008
:100B6000BDE8F08F94F8B820194901EBC20149683B
:100B70008845F0D10CFB02F2A1180E6A0021134443
:100B8000234407911989042307AA19440BF004F898
:100B90000028DED194F8B8300799012B0BBF0D4A1D
:100BA000D6E901234FF082739B18914201D39942F9
:100BB000D1D90698B3E700BFB8200020B0200020AC
:100BC000A67E00203DB8F396D8270020B420002050
:100BD0001CFD0000008800012DE9F84F8846914671
:100BE0009A460026DFF88CB0234D244C0B9B9E4286
:100BF00001D300200FE00B9B40469F1BB7F5806F91
:100C000028BF4FF480671B4A3B4606EB0A010AF0F7
:100C1000C3FF10B10120BDE8F88F0A993B465A4640
:100C2000484671180AF0CDFF0028F3D1144BC5F8DF
:100C300000463E44C5F80446C5F80846C5F80C46CB
:100C4000C5F81046C5F81446C5F81846C5F81C4640
:100C5000C3F80046C3F80446C3F80846C3F80C4678
:100C6000C3F81046C3F81446C3F81846C3F81C4628
:100C7000BCE700BFDC470020008001503546526EC3
:100C8000009001502DE9F04F002504460E46A8467D
:100C90005827DFF8E491DFF8E4A195B0012D84F83E
:100CA000B85007D9B8F1000F00F0638100202C255F
:100CB0005827DBE0631993F8B910002952D107FBDC
:100CC000054309EBC5225A620AEBC52228461A657C
:100CD000FFF746FC94F8B810C0B207FB0141203181
:100CE00000F0DAFE30B140F6B701654B654A664860
:100CF00009F0B2FE01212846FFF732FC94F8B81043
:100D0000C0B207FB01414C3100F0C6FE0028EAD119
:100D10002046FFF77BFEE8B90022204611460AF084
:100D2000EDF98346002840F0948020460AF047FA07
:100D3000002800F08E800AA80AF00FFA0AF016FACE
:100D4000054628BB94F8B8308BB94FF4FA614F4B85
:100D50004F4ACCE7012294F8B8309042234483F8FC
:100D6000B020D9D194F8B8500135EDB296E794F897
:100D7000B020042A04BF012284F8B020012BE4D063
:100D800094F8B130042BE0D1012384F8B130DCE7D2
:100D90009DF82F30012B4AD1582294F8B830CDF865
:100DA00038B002FB03433B4AD96AD86C914216D053
:100DB00094F8B80005F03AFD831E022B834618D83C
:100DC00001212046FFF748FE334B1B68984210D0A4
:100DD000324B1B6898420AD14FF0010B09E0998E03
:100DE00004230EAA19440AF0D7FE0028E0D04FF0E1
:100DF000050B94F8B830234483F8B0B094F8B830B9
:100E00006BB1E21892F8B020012AABD0042A0CD0C2
:100E100094F8B020042A02D1012284F8B02023449F
:100E200093F8B030023B022B9CD8A8469AE70121E8
:100E30002046FFF711FE184B1B68984218BF052289
:100E400094F8B83008BF9DF82F20234483F8B020D1
:100E5000D4E7012294F8B830234483F8B02081E726
:100E6000231893F8B920DAB10130C0B2012884F810
:100E7000B800F5D97DE000BFDC370020DC2700207A
:100E80001C03010061040100E503010022030100CD
:100E9000430401003DB8F396D8270020B420002079
:100EA00093F8B08008F0FB08B8F1010818BF4FF0C4
:100EB00001084146FFF754FB05A9C0B200F0ECFD64
:100EC000002871D1012305FB08F894F8B810059AA1
:100ED00017FB01810093214440230EA80AF06BF810
:100EE0008046002862D100230DF1120206A90EA847
:100EF0000AF0AFF800283CDB059864D1BDF8123049
:100F00000C2B5ED1069907AA0AF046FE002863D191
:100F10009DF81C30012B62D8E21892F8B0207B4378
:100F2000023A022A8CBF0022012205FB023323442D
:100F3000197D9DF820209142D5D80AD3597D9DF87E
:100F400021209142CFD804D3DA8ABDF822309A42C8
:100F5000C9D294F8B8300598234493F8B020012AF8
:100F600020D0023A012A02D8012283F8B0200AF0E8
:100F700012FE00254FF0FF094FF05808012D84F8AC
:100F8000B8502FD90023DFF8C482B14DB14F0E9372
:100F9000012B84F8B83040F277810E9B022B00F0D1
:100FA000C381FEE70422E0E70598E0E705980AF030
:100FB000F2FDB8F1030FDCD140F20113A4F8B03018
:100FC000D7E74FF0030805980AF0E5FDB8F1000FE8
:100FD000EFD194F8B80047E74FF00108F3E74FF07E
:100FE0000708F0E7621992F8B930002B40F047810A
:100FF0000AA80AF0B2F892F8B030042B8DF82F301E
:1010000006D8012B06D800F00F8182F8B0900BE1D2
:10101000052BF8E708FB0543194628462C31DA6C06
:101020000BF0B4FE0128014640F0228194F8B8008C
:10103000FFF796FA07A9C0B200F02EFD08B1079895
:101040001FE094F8B830079808FB03439D8E9B6B14
:101050000EAA1D44294604230AF09EFD0028EED165
:1010600094F8B830BDF8382008FB0343B3F836A035
:1010700046F608139A42079830D1BDF83A309A459F
:1010800006D00AF088FD40F20451734B734A2EE6F5
:1010900004230EAA0AEB05010AF07EFD0028CED13A
:1010A00046F60713BDF8382007989A42E9D1BDF8F3
:1010B0003A700AF070FD57444FF0580A2F4494F8E4
:1010C000B85007A90AFB05431B6A187800F0E4FC36
:1010D00040B140F20E51604B604A08E6BAF1000F91
:1010E000DED0CEE75E4B0EA903EBC503187900F006
:1010F000D3FC054620B140F21251574B574AF6E552
:10110000834694F8B8300AFB03439B6A5B451ED0C4
:1011100094F8B82029460AFB0242526A079802EB6B
:10112000CB025268039302920AF060FDDDE90223CC
:1011300020B14FF4A361484B484AD8E51544BD425D
:1011400029D3D4F8B450B7FBF5F705FB0755D4F80D
:10115000B40009F0CCFF582394F8B82003FB0242F6
:10116000536A926A1968013A03EBC20300225F686E
:101170009C463A449042A3F10803F8D8DCF80030CA
:101180000798591A0AF032FD034638B14FF4A661A8
:10119000314B324AABE50BF1010BB7E7CDE9000566
:1011A000079A20460E99FFF717FD002848D10798A7
:1011B00005F0C4FA002843D1582794F8B8002A460D
:1011C00007FB0043196A0BF0EFFD0146002837D1F9
:1011D00094F8B8300E9807FB03431B6D5A680AF069
:1011E00005FD20B140F26D511B4B1C4A7FE594F880
:1011F000B83007FB0343D3E91423013B52F8331003
:1012000002EBC30013684268C91A0E980AF0EEFC9C
:1012100020B140F27551104B104A68E507980AF06A
:10122000BAFC0E980AF0B7FC94F8B830234493F84F
:10123000B030FF2B23D140F621110A4B0A4A56E564
:1012400040F2D261044B094A51E500BFB8200020AA
:10125000D8270020B42000201C0301001F04010037
:101260001CFD000022030100610401002F040100A5
:101270000028D9D040F60A113B4B3C4A37E594F898
:10128000B8500135EDB279E6234493F8B9208DF8D2
:101290001C209DF81C2002F0FF013AB10E9B013387
:1012A0000E9394F8B8300133DBB271E693F8B030A6
:1012B000012B15D020460AAA09F020FF80B1D8F8EA
:1012C0000050102200210AA80EF0CCFA5826002364
:1012D000012B84F8B83012D9284615B0BDE8F08F3C
:1012E00000212046FFF7B8FB2B688342E7D1D8F8EE
:1012F00000209A42E3D03A689A42CFD1DFE7E21861
:1013000092F8B9205AB906FB0343D86C0AF043FCA3
:1013100094F8B83006FB0343186A0AF03CFC94F8D2
:10132000B8300133DBB2D3E794F8B9301BB194F88D
:10133000BA30ABB90123582505FB034284F8B83015
:10134000106A09F01DFE307194F8B83005FB0343B4
:101350001B6A5B68B36094F8B83003FB05453560E1
:10136000034B1D68ADE700BF1C03010061040100D1
:10137000D8270020054B10B5BC2204460021184692
:101380000EF070FA2146FFF77DFC10BDDC4B00200B
:10139000BFF36F8F72B600234FF0FF30094A03F19D
:1013A00020010133102B42F82100F8D100234FF027
:1013B000FF30044A03F160010133102B42F8210091
:1013C000F8D1704700E100E070B501224FF0FF3422
:1013D00000258026194B1A485A60C3F84843C3F8C1
:1013E000084303F580535A602946C3F84843324600
:1013F000C3F80843C0F80055C0F8084330440EF065
:1014000031FA324629460F480EF02CFA0E48324681
:10141000C0F800552946C0F8084330440EF022FABF
:101420003246294609480EF01DFA094BC3F8084513
:101430004FF05023C3F8084370BD00BF0040015077
:10144000008000508081005000900050809100503A
:10145000007001502DE9F043079D15B9156000207B
:1014600012E00324B5FBF4F404EB4407BD4218BFBB
:101470000134B4F1804F09D2A40001348C4200D869
:1014800038B96FF00B001460BDE8F0834FF0FF3403
:10149000F7E704460021DFF8B4E0B94203F1030C9A
:1014A00004F104062BD3A942274623D201F1010CF3
:1014B000AC451F7828BF002324494FEAA70E38BF48
:1014C0005B7811F80EE0AC4584F800E001EB131EE8
:1014D0002EBF3D239B0003F03C034FEA071738BFA4
:1014E000CB5C07F030071EF80770A3703D236770D0
:1014F0003746E3700023381A10603B70AFE71CF8E2
:10150000034C1CF8023C4FEAA4091EF80990240180
:101510001CF8018C04F0300406F8049C0EEB13193F
:1015200019F804409B0006F8034C03F03C030EEB53
:101530009814E35C08F03F0806F8023C1EF80830F7
:10154000344606F8013C03316346A6E7FF05010077
:101550002DE9F04300273C463D46DDF81CE0DFF86E
:10156000288175451FD3E4BB00201460BDE8F083DB
:101570000136764533D013F806C0BCF1200FF7D002
:10158000AEEB0609B9F1010FA6EB05050DD0BCF1D4
:101590000D0F0AD103EB060999F80190B9F10A0F72
:1015A0006ED1751CDDE72E46E3E7BCF10A0FF8D0DB
:1015B0002DB9BCF13D0F05D10137022F0DD96FF0C8
:1015C0001500D3E71CF0800FF9D118F80C507F2DCF
:1015D000F5D03F2D01D8002FF1D10134E1E7354698
:1015E000C1E74FF0060C04F00706E4080CFB06F612
:1015F0000CFB04F40736E41B04EBD60470B18C42F8
:101600000CD80027014603263C46DFF87CE0DFF8D3
:101610007C801D449D4205D10C1AA5E76FF00B009C
:101620001460A3E713F8019BA9F10A0C5FFA8CFC84
:10163000BCF1160F04D848FA0CFC1CF0010FE9D0DD
:101640001EF809C00134BCF1400F08BF013E0CF088
:101650003F0C042C4CEA8717DCD17EB13C0C012EE8
:101660000C7002D101310024D4E7022E4FEA172476
:101670004C7016BF8F7002310331F4E73446C9E76E
:10168000002DA2D09BE700BF7F050100F6FFBFFF42
:10169000014B1B68184700BFBC200020014B18609D
:1016A000704700BFBC20002030B585B004460D4611
:1016B0001022002168460EF0D5F802238DF8023082
:1016C000044B2A4621466846019309F00DFA05B0FD
:1016D00030BD00BF9116000080B505460E46174686
:1016E000984608F057FD03460EF0CCF80446DFF8A4
:1016F0001890424649F8003039463046A84754F819
:10170000090002F04BFC00BF080000002DE9F04783
:10171000058B04462807904611D4022905F00705D9
:1017200040F0CD8020460AF079F878B10138218B5D
:10173000042811D8DFE800F0C3106D859500012959
:101740000CBF45F0100545F02005258388F311886E
:10175000BFF36F8FBDE8F08701F0070AAA4500F0DC
:10176000A6800027B9463E46A368002B00F0BD8046
:1017700041F00801218388F31188BFF36F8FA168BE
:10178000002900F0BB800D68002900F0B7803346C7
:1017900052462046D1F80480C047002D76D02B68F1
:1017A00029461D46F0E701F007035A1F012A1BD8FE
:1017B000002221F00701062B276889B2C4E9002224
:1017C00009D13B4603E0628B013262831B68002B28
:1017D000F9D141F00201204621830AF01FF80028C8
:1017E0007BD041F0200177E0042B0AD121F00701E2
:1017F00089B2204621830AF011F810B141F020018E
:101800002183218B01F0070AAA4550D00027B94651
:10181000AAE7236921F0070141F00601062DD3F85C
:10182000009021832DD1B9F1000F40D041F0080183
:10183000218388F31188BFF36F8F20463949C84749
:1018400029E021F00701236941F0040189B2042D48
:10185000D3F804902183E6D000274FF0040A3E46D7
:1018600082E721F00701236941F0050189B2052DC6
:10187000D3F808902183D6D000274FF0050A3E46C2
:1018800072E700274FF0060A3E466DE72B4687E7D2
:10189000B9F1000FD1D14FF02003EFF3118883F39A
:1018A0001288BFF36F8F238B23F008032383258BCC
:1018B000EA062ED525F01003238305F00705666997
:1018C000218B002EBFF66FAF00232768C4E90033D9
:1018D00021F0070141F001012183218B4FF0000924
:1018E00001F0070AAA457FF43FAF002F9BD041F0DB
:1018F0000801218388F31188BFF36F8F002FC7D0B1
:101900003D68394633465246204609F0B3FF2F461C
:10191000F4E7AB067FF51AAF25F02003238305F02B
:101920000705FFE6A1B80000044608B54FF0200205
:10193000EFF3118382F31288BFF36F8F04F0F4FD8D
:10194000204602F0E1FA034809F093FC01F0E8FFB9
:10195000FCE700BF5006010007B50DF107000CF0D1
:10196000D8FD114B98421CD14FF480620F4B1049A7
:10197000C3F8B8254FF40062C3F83C259DF8070072
:101980000CF0BBFD0B499DF807000CF0B1FD0120E8
:101990009DF80730984005F06BFC002003B05DF81F
:1019A00004FB6FF00B00F9E70000AD0B00A0025044
:1019B0002CA0025028A10250054B03EB8000D0F868
:1019C000003223F0E04343F04053C0F80032704748
:1019D00000258450012208B50A4B0B49C3F80025A5
:1019E00002230020C1F8D036FFF7E6FF1046FFF7CC
:1019F000E3FFC1F80427C1F80429C1F8002B002037
:101A000008BD00BF0010005000400050052370B515
:101A1000144D154E2C780134B4FBF3F303EB830320
:101A2000E41A0BF07CF9114A137823B156F82430EC
:101A3000C01A072814D94FF05023D3F8141141B11C
:101A40000021C3F81411D3F814312C700CB9012300
:101A500013702C780BF063F946F82400012070BD58
:101A60000020FCE7A77F0020984C0020A67F0020E4
:101A700048B1054B054A1B68B3FBF2F35843044BCE
:101A800043F0010318477047F021002040420F0047
:101A9000F0FC000005F0CEBA70B5114B0D461C6885
:101AA000DCB1104B196800238B4202DB6FF00100A0
:101AB00070BD224612F8106B864202D014460133E4
:101AC000F2E7E06810B96FF01200F1E70DF0D8FA14
:101AD0000028F8D000202C60EAE76FF00C00E7E760
:101AE000182100207CFD000070B588B005460C462A
:101AF000C0B269461646FFF7CFFF00281BDB0098EF
:101B0000C8B143682268029383680195CDE9033622
:101B10000023CDE906230593C5680AF03CF86DB1B2
:101B20002846084901AA0AF08EFD079808B9059BC6
:101B3000236008B070BD6FF01500FAE76FF0120077
:101B4000F7E700BF31BC0000F0B40C4B0C4E5F6AED
:101B50000C4BB34203D36FF08500F0BC70475D6857
:101B6000BD4209D31C693CB195F802C00579AC456A
:101B700002D12346F0BC18472433EAE7AC4C0020DE
:101B8000B8240020942400202DE9F04705460E4695
:101B90001746124CDFF84880DFF84890444503D3DD
:101BA0006FF08500BDE8F0876268D9F824309A426A
:101BB00012D3A36983B190782979884205D13A4636
:101BC00031462846BDE8F04718475279012A03D12B
:101BD0003A463146284698472434DFE794240020CB
:101BE000B8240020AC4C00202DE9F04105460E46FB
:101BF00017460A4CDFF82880444502D36FF0850071
:101C000009E063690BB92434F6E73A4631462846C1
:101C100098470028F7D1BDE8F08100BF9424002048
:101C2000B824002010B504460AF015FA10F1780F18
:101C300000D050B920460AF01DF8044AD2F8C4304A
:101C400023EA00030020C2F8C43010BDAC4C0020D1
:101C50000022024B1A605A60704700BF674D002097
:101C600070B50B4B0B4CA34201D3002070BD00227A
:101C7000196A1E7F0439D5B2AE4201D82433F2E787
:101C8000013211F832508542F5D10120EEE700BF54
:101C900094240020B824002008B509480378C3F331
:101CA00041130A3350F823303BB100F1080200F130
:101CB00010019847C043C00F08BD1846FCE700BF9D
:101CC000AC4C002004282DE9F14F04460F46DFF804
:101CD000949016D001282DD1DFF88C8098F8B93077
:101CE00043B300F00BFE214D4D4520D24FF0000ACA
:101CF000D5F820B02B7F5FFA8AF6B34204D824359A
:101D0000F2E7FFF7A5FFE7E70BEBC60630790AF02D
:101D1000A2F90246307909F0ADFFD8F8C430002AA4
:101D200023EA0003C8F8C4300AF1010AE2DA00230A
:101D300088F8B9300D4D4D4508D30B4B1B6A6BB17C
:101D40003946204601B0BDE8F04F1847EB681BB19B
:101D50003A462146284698472435ECE701B0BDE8CD
:101D6000F08F00BFB8240020AC4C00209424002049
:101D700073B5C4B263060D468DF8074007D0204600
:101D8000FFF76EFF78B10D4B93F8BA0058B12046BB
:101D90000A4E55B102F0CAFEF3691BB108200DF1DD
:101DA00007019847012002B070BD02F0E7FEF36919
:101DB000002BF7D009200DF10701F2E7AC4C002011
:101DC00073B586781E4C8DF800600379427943EA3A
:101DD0000223ADF80230C378304603F003038DF8D8
:101DE000043009F047FFD4F8C430054618420BD040
:101DF000304600F065FD3046FFF714FF0DF099F90D
:101E000010B9962008F0ACF9684602F06BFE10F1AC
:101E1000780F03D010B1002002B070BD9DF8000013
:101E200002F0E8FE10F1780F01D00028F3D1012074
:101E3000D4F8C43084F8B9002B43C4F8C430EBE7BD
:101E4000AC4C00202DE9F047924D0446AB690E469C
:101E50001746C3B9207800F01F00012876D0022869
:101E600000F0DC8000BB94F900103A680029637828
:101E70002EDA062B0CD0082B25D0ABB953700123DA
:101E80001370022303E198470028E3D100200DE0FE
:101E90006388190A0A1F012A8C4605D9072903D825
:101EA000DAB26B6A1C781CB96FF01500BDE8F087D8
:101EB0005D78654503D1824200F0E480013023441F
:101EC000F0E71B78E3E095F8BA3013700123DEE009
:101ED000052B11D0092BE7D163886E6A002B32D114
:101EE000FFF7B6FE638885F8BA30EB69002BCDD0DA
:101EF000032069499847C9E7A07802F0E1FD00286E
:101F0000C4D0D1E77378042B10D0052B11D0022B4D
:101F100004D177796388BB4208BF012033781E441F
:101F20003378002BEED10028BED0D9E796F8038095
:101F3000F4E76388BB42F1D1B8F1000FEED130462F
:101F4000FFF73EFFEAE7FF27B846E9E795F8BA3022
:101F5000D7F800C0002BA7D06F6AA2883B4694F840
:101F600004E0187800289FD05978022904D193F80A
:101F70000480F04500F292800344F2E78CF80030D0
:101F80008CF80130316081E71F4493E00B2B8BD13B
:101F900000264FF0FF08B246C14606E07B78042BCE
:101FA0000FD0052B21D03B781F443B78002BF5D177
:101FB000EB6913B1514607209847002E7FF466AFB6
:101FC00072E797F80280A38897F803909845EAD1C2
:101FD00063889945E7D1B8F1070F1CD805EB0803D2
:101FE000BA46012683F8BB90DDE7A3884345DAD1E2
:101FF000A3784B450AD0BE78304600F061FC3046ED
:10200000FFF710FEB0FA80F67609CCE73846FFF706
:10201000D7FE0646C7E7BA460026C4E794F9002073
:102020006378002A18DA002B7FF43EAF24793F68EA
:1020300063060AD02046FFF713FE00283FF434AFB2
:1020400095F8BA30002B3FF42FAF3946204602F006
:10205000B5FD00237B7014E7012B08D0032B7FF420
:1020600023AF6388002B7FF41FAF012103E0618859
:1020700000297FF419AFA088FFF77AFE00287FF4CB
:1020800005AF11E702293B607FF41BAF5B8833602B
:10209000FCE600BFAC4C0020664D002094F9000027
:1020A00063780028BFF672AF002B3FF467AF0A2BAE
:1020B0007FF4FAAE3B78002B3FF4F6AE7978042932
:1020C0007FF462AFB9788A427FF45EAF072A8EBF91
:1020D0000023521992F8BB308CF80030F6E600BFAE
:1020E00070B5164D95F8B830FBB102F0C9FC002868
:1020F00022DB00F003FC0024D5F8C430E6B2E34054
:10210000DA0714D4D5F8C43004F11002D340DB0749
:1021100005D546F08000FFF785FD00280CDB013473
:10212000102CE9D1002385F8B830002004E03046B7
:10213000FFF778FD0028E5DA70BD00BFAC4C002049
:1021400013B5164C237DF3B9E26801AB8020A1687A
:10215000019209F09EFD019AA3681344A360E3680D
:102160009B1AE3606BB962B12369E2889A4208DD89
:1021700094F8C82093FBF2F102FB11330BB9012351
:10218000237502B010BD002380201A46194623751E
:1021900002B0BDE8104002F057BD00BFAC4C0020BB
:1021A000002330B585B002460D460193002858D172
:1021B000002935D108220B460DEB020109F064FF1E
:1021C000002804DA802002F0B1FC05B030BD2A4CB2
:1021D000029AC4E903552260039ABDF80E3062608A
:1021E00004F13802A2609DF908202575002A0ADB57
:1021F000802B04D9802002F099FC0020E3E713B182
:10220000C4E90333E1E7FFF747FD0028DAD0E288AD
:1022100023699A42D4BFE260E360FFF791FFD4E7FD
:10222000154C01ABD4E90215002D04DC09F02CFF9C
:102230000028CADAC6E72A4609F026FF0028D9DBBB
:10224000019AA3681344A360E3689B1AE360002B20
:10225000BBD104F13803A360FFF71EFD0028DCD1D9
:10226000B0E78028B1D1044BDA68002AD5D11B7DB4
:10227000002BD2D1A9E700BFAC4C0020054B064A89
:1022800058629A62054A0020DA62054A1A63054AD2
:102290009A617047AC4C0020451E0000491B0000AD
:1022A000E91B0000891B000010B5084B93F8B840EB
:1022B00034B900F0E3F830B1FFF7E0FF204610BD7D
:1022C0006FF07700FBE74FF0FF30F8E7AC4C0020F1
:1022D0002DE9F341414D04466F6A4FF0FF324FF054
:1022E000FF333F4807F0B4F995F8B860002E6ED17F
:1022F0003C482C62E86102F0C1FD02F08FFB041E35
:1023000049DB00F01FFB041E45DB7B78012B61D10C
:10231000FB79002B5ED0684685F8C830ADF80230F6
:102320008DF804608DF8006002F0DCFB041E32DBE7
:10233000802768468DF8007002F0D4FB041E2ADB6B
:102340003046294902F086FD041E24DB3846264922
:1023500002F080FD041E1EDB244CDFF8948044450F
:1023600020D3002002F046FC041E14DBD5F8C43054
:10237000802043F00103C5F8C43002F03BFC041E8A
:1023800009DBD5F8C430002443F48033C5F8C430E9
:10239000012385F8B830124807F0D4F9204602B07E
:1023A000BDE8F0810026276A227FF3B29A4201D865
:1023B0002434D4E707EBC30257F83310107902F046
:1023C00049FD01360028EFD04FF0FF34E3E76FF00E
:1023D0007704E0E76FF01504DDE700BFAC4C0020A8
:1023E00094230020C51C0000A1210000942400209B
:1023F000B824002030B51F4B8BB005AA03F110059F
:10240000144618685968083303C4AB422246F7D112
:102410001B7810222370002101A80DF023FA12224C
:10242000002115480DF01EFA102101A80AF084F9C8
:1024300000281BDD0828B8BF082001AB09381A188E
:1024400000200D4912F8013F0AAC04EB131403F00D
:102450000F0328336B4414F8144C13F8143C013068
:1024600008280C704B7001F10201EBD102480BB04F
:1024700030BD00BF88060100A87F00202DE9F04F85
:102480004FF0000B6E4C87B000264FF0011AB0469B
:102490003546B14623782BB96A4B02349C42F3D1BE
:1024A000674833E06378052B1BD8DFE803F08E0321
:1024B000C68E1D3B402304A88DF810B0ADF8123035
:1024C0008DF814B009F0AFFD40B1082304A8ADF8B1
:1024D000123009F0A8FD08B1ADF812B0BDF8123005
:1024E000E37123781C44D5E7E378002BF9D1A37876
:1024F0007BB108F101085FFA88F8F2E76B689C424B
:1025000009D02435504B9D42F8D3002007B0BDE8D8
:10251000F08F4E4DF6E7AB68002BEAD041462046DF
:102520009847E6E7002DF0D000222B7F9A42ECD2AC
:10253000296AA07801EBC2010B79984201D00132DF
:10254000F3E70127E078FBB200F003008DF81400F8
:10255000207994F805C040EA0C20ADF8120094F9F7
:102560000200002826DA4FF0010C07F110000CFAE7
:1025700000F010EA0A0F24D143F080008DF810001B
:1025800004A8CDE90213019209F04DFDDDE9012116
:10259000039BB0B99DF8102012F0800FA2700A7151
:1025A0004FF001021DBF1033DBB29A40BA404AEA35
:1025B000020A96E70120B84010EA0A0F01D1184636
:1025C000DCE70137102FBDD1B9E7032E1DD1FFF78E
:1025D00011FF074668B1FDF725FF102809D13846DD
:1025E000A31C07F1100250F8041B904243F8041B8F
:1025F000F9D16FF002012378091BE21804EB5303B1
:10260000D14213D50136F6B26BE7002EF1D1B9F104
:10261000000F3FF47AAFA4EB090389F80230C3F34B
:10262000072389F8033089F80480EBE702F801BC3E
:1026300013F8010902F8020DE2E7A14651E700BFD5
:10264000B823002093240020B824002094240020E4
:10265000094B00211A4610B51C78844204D15C68ED
:1026600014B102EB811010BD0131042903F14003C4
:10267000F2D10020F7E700BF784D00202DE9F341AB
:1026800050F8283C0446103310F82C6C10D1036924
:1026900050F8202C990739D5EAB913F0040304D176
:1026A0001A461946304609F0F4FA002344F8283C4B
:1026B00054F8283C10330BD054E9077554F8148CA7
:1026C0000CF037FD00284CD021462C480CF02AFE97
:1026D00002B0BDE8F08150F8241C01AB304609F08F
:1026E000D8FA10B16FF01503E0E7019A54F8243CD2
:1026F000134444F8243C54F8203C9B1A44F8203CF2
:1027000054F81C3C134444F81C3CD1E750F8241CFA
:1027100001AB304602F014FB0028E3D1019D54F8D0
:10272000243C2B4444F8243C54F8203C5B1B44F8E4
:10273000203C54F81C3C2B4444F81C3C002DB4D0E5
:10274000304602F0A1FBB5FBF0F303FB1055002D62
:10275000ABD154F8203C002BA7D0304602F038FB18
:10276000A6E744F8180CA4F1100007F05BF8002D60
:10277000AED0424639463046A847A9E7B8240020E3
:102780004B1E012B73B506460D460FD8FFF760FFB1
:10279000044668B9012D09D101AB012230460DF183
:1027A000030102F0CDFA019B002BF5D102B070BD00
:1027B0000CF0BFFC04F12C0108B1012D05D1084635
:1027C00002B0BDE87040FFF759BF034802B0BDE852
:1027D00070400CF0A7BD00BFB82400202DE9F74FD2
:1027E000064615469846019109F099FA04460028D4
:1027F0005CD14FF02003EFF3118A83F31288BFF30B
:102800006F8FDFF8B0B000220023584607F02EF893
:1028100070B9DFF8A490A70109EB8414636813F181
:10282000100F14D10193584606F0FCFF019B06E0FF
:102830000134042C0BF1400BE5D16FF00B038AF34C
:102840001188BFF36F8F184603B0BDE8F08F019B6E
:102850002061C4E902350C9B304663610D9B09F889
:102860000760A3616FF00F03C4F83C80636002F05F
:102870000BFB58B1304602F007FBB5FBF0F303FB4E
:1028800010551DB1E36B43F00403E36318F0020F2E
:1028900007D007F12C01094849440CF043FD0023FF
:1028A000CDE7304602F094FA0346C8E76FF00F0315
:1028B000C9E700BF944D0020784D0020B8240020C7
:1028C00010B54FF02003EFF3118483F31288BFF3A8
:1028D0006F8FFFF7BDFE50B14368103307D16FF023
:1028E0008B0300F12C01436003480CF01BFD84F3C3
:1028F0001188BFF36F8F10BDB824002070B5042578
:102900000E4C4FF02003EFF3118683F31288BFF3D0
:102910006F8F6368103307D16FF08B0308486360D3
:1029200004F12C010CF0FEFC86F31188BFF36F8FCD
:10293000013D04F14004E4D170BD00BF784D00209A
:10294000B824002070B50025094C0A4E31462046B7
:102950000CF0CBFC0122A4F11000114601350CF063
:1029600087FC042D04F14004F0D1002070BD00BFAD
:10297000A44D00207D260000014608B5034809F05B
:10298000B8F910B1012300F8073C08BD784E0020CB
:102990000123016981F84B300B6833B191F849305C
:1029A0001BB1024808310CF0BDBC7047B8240020B0
:1029B0000123016981F84A300B6833B191F848303E
:1029C0001BB1024808310CF0ADBC7047B8240020A0
:1029D00038B5056995F89E0088B195F89F307BB9A8
:1029E00085F84830D5F8900009F064F804460022D4
:1029F0000023044805F1180107F0ACF8204638BD63
:102A00000020FCE7B824002013B504698DF80710F6
:102A100094F89E30A3B194F89F308BB90DF1070163
:102A20000122D4F8900084F8483009F043F80146B8
:102A300040B1212200230C4804F1180107F08AF864
:102A400002B010BD0122D4F8900009F083F80028EC
:102A5000F6D00122D4F890000DF1070109F02AF810
:102A60000028E6D1ECE700BFB8240020F0B5D0F88C
:102A70008C3005465B6885B01B6A1F7D384609F0BF
:102A80004EF90646E0B94FF48062A86F03A909F039
:102A900030F80446A0B18306A5F1180385F830602C
:102AA0000193084B08BF00F1FF34039900932246BD
:102AB00002233846FFF792FE2146A86F09F035F849
:102AC00005B0F0BD692B000070B504460E460179D3
:102AD0001548154609F000F910B394F90020637801
:102AE000002A16DB202B04D0222B0ED06FF085009D
:102AF0000AE02B681A6840F8102C9A8820F80C2CF1
:102B00009B7900F80A3C002070BD638800F8093CFE
:102B1000F9E7212BEAD10723103828603360F2E768
:102B20006FF01200F0E700BF784E0020002103464E
:102B30000C4AA0F84810106883F89C10C3F8940061
:102B400090889279A3F8980083F89A2083F89B10D4
:102B50004022A3F89E1083F8A01003F14C000CF063
:102B600081BE00BFE0FC0000012310B582F84830B0
:102B7000136814463BB192F84A3023B10A4802F177
:102B800008010CF0CFFBD4F890309A681B699A4288
:102B900008D004F118010022BDE8104000230248CB
:102BA00006F0D8BF10BD00BFB8240020002310B528
:102BB0000469C4F8A8300C4BC4F8A400596804F1A7
:102BC000A80269B9C3E9002204F1080007490CF022
:102BD0008CFB04F1180006490CF0B5FB002010BD79
:102BE0000A605A60F0E700BF784E002049BD00003F
:102BF0006D2A000073B5144602F14C060A1E054604
:102C00001FDD3146D4F88C0008F054FF012384F80E
:102C1000493023683BB194F84B3023B10E4804F19E
:102C200008010CF07FFBD4F88C104B684A699A1AA3
:102C3000CB699B1A3F2B04D8012384F8A03002B043
:102C400070BD064B40220093314601232846019473
:102C5000FFF7C4FDF3E700BFB8240020F52B000008
:102C600038B50D4601461E4809F02BF8044680B3DE
:102C7000024652F8A439691E5B68052929D8DFE8A5
:102C800001F020280320252914F8061C31B91B6AFD
:102C9000187BFFF7AFFF012304F8063C14F85C3CF7
:102CA000BBB9012304F85C3C54F8A43C8BB114F884
:102CB0005A3C73B1A4F19C010A48BDE838400CF0BD
:102CC00031BB1046BDE83840FFF730BF012304F8A0
:102CD000053C38BD14F8053C002BFAD00023F6E77C
:102CE000784E0020B824002037B50024084D4FF05E
:102CF000FF334FF4806228460649009406F0F2FE46
:102D0000054928460CF01BFA204603B030BD00BF31
:102D1000B824002040890420CF060100014807F0B4
:102D20004FBD00BF40FE000038B5044618B90F4B38
:102D30000F485B6898476168B1F5683F10D0B1F5FE
:102D4000680F0DD00B4DA9420AD011F468612068BC
:102D500007D0014608480CF0C6F9002323606560DF
:102D600038BD14220CF07EFDF9E700BF7C22002064
:102D7000D80601002C5F5CA98053002008B560B321
:102D80004368B3F5683F0ED0B3F5680F18D0144A06
:102D9000934220D000684FF0FF324FF0FF3306F02F
:102DA00057FC58B115E001220368D3E8EF1F002952
:102DB00003D1C3E8E02F0028F7D10AD1002008BDD5
:102DC0000368084A1B7803F5807352F82330002B00
:102DD000F4D00548F3E70548F1E76FF4E040EEE78B
:102DE0002C5F5CA900000350E98FFFFFEA8FFFFF13
:102DF00008B520B34368B3F5683F09D0B3F5680F51
:102E000013D0114A93421DD0006806F09BFC14E0D9
:102E100000220368D3E8EF1F012903D1C3E8E02FA4
:102E20000028F7D109D0094808BD00210368084AE5
:102E30001B7803F5807342F823100020F4E76FF449
:102E4000E040F1E70348EFE72C5F5CA9E98FFFFF63
:102E500000000350EA8FFFFF10B5044618B91D4B60
:102E60001D485B6898476368B3F5683F2FD0B3F59A
:102E7000680F2CD0194A934219D1236803BB4FF035
:102E8000FF324FF0FF332146154806F0EDFA08B93E
:102E900023681BB90F4B13485B6898471422002125
:102EA00020680CF0DFFC4FF46863636008E0B3F562
:102EB000683F0DD83A2B03D040F6BA629342DED178
:102EC00020680CF055F9636843F03A03636010BD65
:102ED000054AF3E77C220020D80601002C5F5CA99C
:102EE00080530020FE0601003A00003A08B506496A
:102EF0004023142205480CF0E8F8BDE808400449D6
:102F0000044807F0CFBC00BF804E00208053002053
:102F100048FE00005CFE0000F7B5224E3068836872
:102F20005B6C03B19847306883685B6B002B31D1D1
:102F30001D4C1E4D306883689B69002B2DD00122EB
:102F40000DF107019847012827D1236843B92B6861
:102F50001BB369681A688B422A6008BF6A602360E5
:102F6000134A9DF8070011887F2904D823684F1C55
:102F70000B44178018720A28DCD1002023681188BE
:102F8000186059600B494D684DB9C1E90033108094
:102F90002060CEE798470028CAD103B0F0BD2B606F
:102FA0004B60F4E7F45700209C530020AC53002002
:102FB000A4660020A453002010B5044B04461868F2
:102FC0008368E1B25B689847204610BDF457002043
:102FD000F8B50546164608464FF02003EFF3118773
:102FE00083F31288BFF36F8F1B490B684BB11B4CE7
:102FF00062689A4205D000221A60626862B9C4E928
:103000000033174A136853B987F31188BFF36F8FE2
:1030100018460B603360F8BD13606360F1E7D2F8C7
:1030200004C01C686345146008BF546087F31188AE
:10303000BFF36F8F5C680B60A042D8BF00F1FF3414
:1030400003F10801224628460CF0E5FB0023601C32
:103050002B550123DEE700BFA0530020AC53002016
:10306000A4530020002337B51C462349234AC1E955
:103070000033C2E90033224A4868146088B9C1E9C4
:1030800000220133082B02F18802F5D11D4D1E48A4
:1030900028600BF0F5FF38B94FF0FF34204603B03D
:1030A00030BD02604A60ECE70020FFF711F90446EA
:1030B0000028F1D12868836823B19B6C13B12246A4
:1030C00012499847286883685B6B0BB1984748B1F1
:1030D000286883689B69002BFAD001220DF1070153
:1030E0009847F4E700220A4B28681A8083689B6A95
:1030F000002BD3D09847D1E7AC530020A453002035
:10310000B4530020F45700208CF90000192F000060
:10311000A466002041F204432DE9F04FADF54F7D48
:10312000ADF80C3040F606130026DFF8DCA0ADF851
:103130001030DAF80010354BDFF8D4901D680B78AA
:10314000A5EB09055A1C62F302030B706BBA4B80A6
:103150008B8808225BBA8B804E70304608F073F87B
:103160002A46494608F06FF80746ACB204F10A0354
:10317000DAF800201FFA83FB5BBAADF81830136849
:103180000C34CDF81A30536849462A460DF1180818
:10319000CDF81E307FBA4FF4A5730DF12200A4B212
:1031A0000CF0E1FA28F80B70434640F2C911009484
:1031B00005AA5BA8FEF74EF9BDF8147007B3154DCC
:1031C00002212B6804A85B6898473446DFF84880E2
:1031D0003E1B7C2EA8BF7C262B685BAA10193146AB
:1031E0005B6898472B68012140465B6834449847E8
:1031F000A74205DD2B6802215B6803A89847E7E733
:103200000DF54F7DBDE8F08F40580020105800208C
:10321000BA7F00204458002092070100F0B50C68E6
:10322000164F85B002380D46C4F580610090144BEE
:10323000381903AA0131FEF78BF90446D0B92B687F
:10324000039A1344022B2B6011D93E88023B76BAB5
:10325000B6B29E420BD13246B91C07F0F4FF30B92A
:10326000022E04D92B689A1E2A60FC5401242046A1
:1032700005B0F0BD4FF0FF34F9E700BF0381002037
:103280000685002007B5CDE90001694602480BF02C
:10329000DFFE03B05DF804FB1058002038B505468A
:1032A0000A4C0A2120460BF0DAFE02210848FFF7FB
:1032B000E9FF294620460BF0B4FE20460A210BF018
:1032C000D6FEBDE83840FFF725BF00BF10580020EC
:1032D0002B0701002DE9F04F4FF0FF37C7B00B4629
:1032E00001210397049705970027024600912EA815
:1032F0000421CDE906770BF002FC402239461EA8D6
:103300000CF0B0FA8F4B03211A93052304221B9370
:103310008D4B04ACCDE91C348C4B8D481F938D4BE9
:1033200003AE219308AB22938B4B05AD24938B4BBB
:10333000CDE92901CDE92635CDE92B36259107AB1D
:103340001AA92EA8209208F0C0FD10B303240A2168
:1033500083480BF084FE02218248FFF793FF214649
:103360007F480BF05EFE44B903217948FFF78AFFDE
:103370007D4B7B4819680BF05EFE0A2178480BF004
:1033800076FEFFF7C7FE069808F005FC47B0BDE8DB
:10339000F08F3368DDE908875A1CD7D0B8F1000FE9
:1033A000D4D0DFF8C89133B92268B2F1FF3F18BF1B
:1033B0001346C9F80030D9F80000FDF7E3F806A974
:1033C000C0B2FEF769FB04460028BFD13368664EE1
:1033D000002B4BD1DDF818A030605046DAF808B069
:1033E000FDF7CAFA624A0146504607F0CBFD08B124
:1033F0000124ACE72B685B45A8D85E4A14605E4A9E
:10340000136032685B4D3A4429680698013A08F027
:103410003DFD0028286099DB069808F0FBFBB7FB10
:10342000F0F303FB1070DFF850A13368C5B27D1BC9
:103430001F44DAF800309F4238BF00205FFA80FB5B
:10344000069808F0E7FB012806D9069808F0E2FB89
:10345000013818EA000F52D12B46424631680698CF
:1034600008F0AFFB00287FF471AF2CE03268934284
:103470007FF46DAF404A3B4412689342C1D965E77F
:10348000AF42069888BFEFB208F0CBFB402201465E
:103490000AA80CF0E7F93A4641460AA80CF0BBF935
:1034A0003B46316806980AAA08F08BFB08B104462F
:1034B0004DE73368B8443B443360ED1B069808F091
:1034C000A9FBA842DCD9BBF1000F1AD13368DAF8A6
:1034D00000205B442B44934233607FF438AF244B8D
:1034E00006981A68114608F0D1FC002880DBDAF84B
:1034F00000200699D9F8000009F05CFCD7E74027C6
:10350000DCE7069808F08DFB082201460AA80CF0BB
:10351000A9F908235A4608EB05010AA80CF023F97B
:10352000069F3168384605EB010808F073FB4146F9
:1035300003460AAA384608F044FB00287FF406AF89
:10354000C4E700BF2E07010065ED0000340701004D
:103550003D0701006FED0000390701006BED000031
:10356000105800202B070100085800200C5800209C
:1035700000580020FC570020F8570020002307B512
:1035800002210093044A4FF4A47304480BF071FD28
:1035900003B05DF804FB00BFBA7F00201058002084
:1035A0002DE9F04707290446B0B040F2FC800378CB
:1035B00013F0050F40F0F7804388A1F108055BBACE
:1035C0009BB2AB42C0F0EF808C4B186083885BBA33
:1035D0008380FFF7D3FFA688012E40F0EF80E379C8
:1035E00043B1012B00F0E280082030B0BDE8F04785
:1035F000FFF754BE247814F00704F5D13146804813
:103600000BF02DFD06217F48FFF73CFE05217C488D
:103610000BF021FDDFF8F081DFF8F09100267C4F00
:1036200000E0012631462046D8F80050FCF798FF0C
:1036300008A9C0B2FEF730FA824600282ED13146E2
:10364000204610AA09F073FB012805D1202351461A
:10365000089810AA08F0A0FA109B4B4516D13146E5
:10366000204603F039F805466A4B1B6898420DD195
:1036700040230021019320AB00930846CDE90311BC
:10368000089B029110AAFCF78FFF05463B68DDF806
:1036900020A0AB4208D0504608F07DFA002EC0D0E2
:1036A000002C76D13446B9E700235246009310A986
:1036B0004FF6FF730AA807F07EFC00284ED04FF0AB
:1036C000FF35089808F067FA14214D480BF0C7FC45
:1036D00005215148FFF7D6FD214649480BF0ABFCC8
:1036E00004214E48FFF7CEFD314645480BF0A3FCC0
:1036F0005DB904214A48FFF7C5FD18AB0A932023A2
:103700003F480AA90B930BF0A0FC07214548FFF79F
:10371000B9FDBDF85630402101939DF85530424A1D
:10372000009320A89DF8543007F0B2F9169B4BB1D6
:10373000421E3E2A06D820ADC0F140013B4A284433
:1037400007F0A6F920A8FCF76DFE014620A8FFF7B8
:1037500099FD14212A480BF08AFC9FE70DF11E0306
:1037600007AA09A90AA807F074FC0028A7D1BDF888
:103770001E30102BF2D1BDF81C30202B9FD15046AB
:10378000099918AA08F008FA051E18BF01256D420C
:1037900097E705211A480BF066FC012118480BF049
:1037A00066FCFFF7B7FC30B0BDE8F087294604F1AE
:1037B000080030B0BDE8F047FFF78CBD002E7FF465
:1037C00013AFE379012B05D0052B05D0002B7FF437
:1037D0000BAFE8E7304608E7304609F0F2FA012877
:1037E00001D10A2001E73046FFF758FD4FF40050A1
:1037F000002106F09BFC0120FEF796F840580020BF
:103800001058002041070100B82000203DB8F39671
:10381000D8270020B02000202E0701004807010013
:103820004D070100520701005A0701006607010019
:1038300001232DE9F34100250646DFF8C080304C16
:1038400088F800302F4B304F0095186098F8003002
:1038500013B902B0BDE8F0812C4BC5F58061C3F807
:103860000046C3F80446C3F80846C3F80C46C3F83C
:103870001046C3F81446C3F81846C3F81C4603F5AF
:103880008053C3F80046C3F80446C3F80846C3F89B
:103890000C46C3F81046C3F81446C3F81846C3F8DC
:1038A0001C46336801AA0131781998470028019B0A
:1038B00001DC002BCAD005442BB940F201439D42E4
:1038C000C4D10025C2E73B78062B09D17B78092BB0
:1038D0000BD1002300936946A81EFFF79FFC04E06C
:1038E000042B02D17B78142BF5D00128E9D1009963
:1038F00007480239FFF754FEE3E700BF02810020CA
:103900003546526E44580020048500200080015046
:1039100005810020014910220A60704710ED00E087
:1039200072B6404080F31188BFF36F8F01B5FEF788
:103930006DF8002802D0BFF34F8F30BFBDE80140C3
:1039400062B6BFF36F8F704772B6494081F311883A
:1039500001B5FEF75BF8002802D0BFF34F8F20BF00
:10396000BDE8014080F3118862B6704740B200287C
:1039700007DB01234109034A00F01F00834042F89E
:103980002130704700E100E040B200280CDB01224A
:103990000649430900F01F008240203341F82320EC
:1039A000BFF34F8FBFF36F8F704700BF00E100E0A0
:1039B000054B420953F82220012300F01F0003FAAF
:1039C00000F01040704700BF00E100E040B2002866
:1039D00001F10101ACBF00F16040064B4FEA41111B
:1039E000C9B2ABBF00F5614000F00F0080F80013D2
:1039F0001954704714ED00E030BFFFF7FDBF00BF62
:103A00000B4A08B50B4B22F07F029A60BFF34F8F31
:103A1000BFF36F8FD3F8882022F47002C3F8882098
:103A200005F058FC06F02EFC00F032FA05F09CFC84
:103A30000000000000ED00E0094A0A4993680968A7
:103A40005867996708494B6843F080534B600023DF
:103A500083F31188BFF36F8F9368986F704700BF2F
:103A6000946400204002010000ED00E016498A68DD
:103A70004FF030001044EFF3098C80E8F01F202055
:103A800080F31288BFF36F8F104F4FF000664A69C2
:103A90008A603E604FF07004141920680C4C20605E
:103AA000506F0023536780F3118802F1300090E8D3
:103AB000F01F8CF3098802F1000004B508F06DFADC
:103AC000BDE80440704700009464002004ED00E06D
:103AD000485800201EF0040F0CBFEFF30880EFF3EE
:103AE0000980816911F8021C0229FFD001B508F094
:103AF00045FA01BD42F8203C009B0B4942F81C3CB2
:103B0000019B21F0010142F8183C029B42F8081C7D
:103B100042F8143C4FF0807342F8043C0023203AF2
:103B200002654367704700BFD91600000A4B046F57
:103B300098600A4B1C60036E83F30B88104681F378
:103B40000988002163B681F31188BFF36F8F0022CB
:103B50000023FDF7C1FD00BF9464002048580020F9
:103B600001B5EFF30580A0F110004FEAC000044951
:103B7000014409C99847BDE80140024908470000CF
:103B800004FA0000E53B0000114B124A2DE9F04118
:103B9000D518013DB5FBF3F5DFF83C805D430F4BD5
:103BA000074608EB0304013CB4FBF3F403FB0454A5
:103BB0000E1B30460A490BF02EFE701942460021BA
:103BC000083E0BF04FFE3E6704F10800BDE8F081AF
:103BD00001000000000000000400000004000000DC
:103BE000DCFC0000044B99685869884203D0034903
:103BF0004FF080520A6070479464002004ED00E0AA
:103C0000154B9A6A12F0007F9A6A14BF1E201D207D
:103C100012F0807F9A6A18BF1F2012F4801F9A6AE0
:103C200018BF022012F4002F9A6A18BF212012F444
:103C3000802F9A6A18BF222012F4003F9A6A18BF98
:103C4000232012F4803F9A6A18BF24206FEA0242B0
:103C50006FEA12429A62704700ED00E010B5194B0E
:103C60000246986A9C6A10F4805F14BF17201620E1
:103C700014F4006F9C6A18BF1820A40509D5986B2E
:103C8000986A000404D51AB19A6A22F400429A6232
:103C900019200C4B9A6A12F4806F9A6A18BF1A2086
:103CA000D2050CD49B6A13F4005F18BF1C20054A90
:103CB000936A43F47F43936200230B7010BD1B2073
:103CC000F5E700BF00ED00E010B51C4B0246986A16
:103CD0009C6A10F0100F14BF1120102014F0080F70
:103CE0009C6A18BF1220A40709D5586B986A000671
:103CF00004D51AB19A6A22F080029A6213200F4BFF
:103D00009A6A12F0010F9A6A18BF142012F0200F5D
:103D10009A6A18BF1520D40658BF9B6A074B9A6A47
:103D2000920642BF5A6A22F400525A629A6A42F0DC
:103D3000FF029A6200230B7010BD00BF00ED00E08F
:103D4000F0B5474B04465B6800258BB0C3F308030E
:103D500085F31188BFF36F8F02F07F40B0F17F4F82
:103D600011D102F00C0008280DD010074CBF0C46F2
:103D700001250022033B8DF80720032B05D8DFE83F
:103D800003F02462665F2C46F3E700239DF80720CA
:103D9000CAB902AE04F120073246206861680834CF
:103DA00003C2BC421646F7D1099A002D53D0C2F384
:103DB000080121B96FEA52226FEA4222099218469D
:103DC00002A908F0D9F80BB0F0BD254BDA6A9107CB
:103DD000DBD4DA6A002AD8DBDA6A5200D5D55A6910
:103DE000A16942F480725A61BFF34F8FBFF36F8FA6
:103DF0005A6931F8021C22F480725A61BFF34F8F66
:103E0000BFF36F8F4DF60272914209D09A6AD2B217
:103E100042B101200DF10701FFF756FF0346B5E758
:103E20002368B3E79A6A12F47F4F05D001200DF1A1
:103E30000701FFF713FFF1E79B6AB3F5803FA4D3B7
:103E4000FFF7DEFEEAE700200DF10701E4E70020BE
:103E50000DF10701EDE722F4FF7222F00102ADE758
:103E600000ED00E0044B5A6942F010025A615A69B1
:103E700042F480625A61704700ED00E0EFF3088081
:103E8000EFF3098101B57246FFF75AFF01BD00BF8C
:103E9000002320210348C2180133452B82F8001368
:103EA000F9D1704700E100E0002080F31488BFF3EF
:103EB0006F8F002080F30A8880F30B88FDF7EAFDFE
:103EC00000200E490860BFF34F8F0D4880F308882B
:103ED00000F03EF8202080F311880A484FF400617A
:103EE000401880F30988EFF314800221084380F31F
:103EF0001488BFF36F8FFFF783FD000094ED00E09F
:103F000080DA042040910420BFF34F8F0549064B0F
:103F1000CA6802F4E0621343CB60BFF34F8F00BF67
:103F2000FDE700BF00ED00E00400FA05002318469D
:103F30000649D1F89020C2F30722934200DB704774
:103F4000C1F89830C1F8A0000133F6E700ED00E0B9
:103F500010B572B6002484F31388FFF7E7FF2346F9
:103F60004FF0FF300C4A03F120010133102B42F8CF
:103F70002100F8D100234FF0FF30074A03F1600120
:103F80000133102B42F82100F8D162B6BFF34F8FF6
:103F9000BFF36F8F10BD00BF00E100E0084B9B68CE
:103FA00083420BD1EFF3058343B1064B5A6842F0CD
:103FB00080525A605A6A22F400425A6206F0F0B8FF
:103FC0009464002000ED00E01FB5094C094A234627
:103FD0000121094800F0EAF800230393074B01216F
:103FE000E41A01A80193029400F0EAF804B010BDAD
:103FF00000000720002000206CFE0000B8240020F4
:1040000010B50C7A0B6804F01F0223F01F031A434B
:10401000CB68640923F01F03054943EA440343F0D6
:104020000103C1F89800C1F89C20C1F8A03010BD70
:1040300000ED00E02DE9F04F0F46144606464FF024
:1040400000084E4D85B0B84580F29480D6F80490B3
:10405000B9F1000F36D0B9F11F0F40F2898019F085
:104060001F0F40F08580D6F800A01AF01F0F7FD1F7
:10407000504607F096FF834609EB0A00013807F027
:1040800090FF834574D11BF1160F71D05C456FDD35
:10409000C5F898B0D5F89C10C5F898B0D5F8A03000
:1040A00021F01F0143F01F0AD6E900321A44994259
:1040B00002F1FF391ED1CA4508D131465FFA8BF0B3
:1040C00007F078FF08F101080C36BCE73146C5F867
:1040D00098B0D5F89C3022F01F0203F01F03134361
:1040E000C5F89C30E0B207F065FF10F1160F3FD025
:1040F000441CE7E7C5F898B0D5F8A020013B23F0B1
:104100001F0302F01F021343CA453146E0B2C5F84F
:10411000A030E8D007F04EFF10F1160F28D0C5F8F8
:1041200098B0D5F89C209DF808300AF1FF3A62F368
:1041300004038DF80830D5F8A0309DF808205B08FE
:1041400063F347128DF80820D6E900321344009338
:1041500023F01F03411C5344A3EB0903C8B223F00F
:104160001F030728039303D86946FFF749FFBFE7FA
:104170006FF01504204605B0BDE8F08F00ED00E0BB
:104180000522044BC3F89420BFF34F8FBFF36F8F0A
:10419000704700BF00ED00E0BFF35F8F0022024BCD
:1041A000C3F89420704700BF00ED00E010B5034C49
:1041B0002278FFF73FFF207010BD00BF0589002067
:1041C0002DE9F74F294D8A4606464FF00008AB46C9
:1041D000274FD0451BDAD6F80490B9F1000F3FD035
:1041E00031680846019107F0DCFE0199044609EBAD
:1041F0000100013807F0D5FE84424FF014021D4B38
:1042000008D002FB08F36FF015024BF8032003B04F
:10421000BDE8F08F14F1160F2C60F8D01978A14288
:10422000F5DD02FB08B0C7F89840C7F89840D7F80A
:104230009C4000F10801007B64F304000871D7F88A
:10424000A0000C79400860F347140C71D7F89C105B
:1042500021F01F016960D7F8A01021F01F0129612A
:1042600008F1010814350C36B3E700BF4C580020A4
:1042700000ED00E00589002038B50E4D2C68082CB3
:1042800015D80020FFF788FF0B4B0C4AC3F8C0205D
:10429000844205D10A4B00201C70FFF771FF38BD26
:1042A000696801EB0011FFF7ABFE0130F0E74FF05A
:1042B000FF30F4E77CFE000000ED00E0AAFF4400C0
:1042C0000589002008B5024B1B689847002008BDEF
:1042D00060580020034B044A1860937843F00203AF
:1042E00093707047605800203C21002008B50448B6
:1042F00006F0BFFF404080F311884FF0020002DF5C
:104300006D07010008B5044806F0B3FF404080F394
:1043100011884FF0040002DF8B07010008B5064941
:10432000064821F00701C1F1005202F5E02207F032
:1043300002FA002008BD00BF13E9042080DE04203B
:10434000020600F07F0312D5082B05D1010700F00B
:104350000F0306D50E48704710F0780F12D100F009
:104360000F034C2000EB43100A4B18447047082BF6
:1043700005D1020700F00F0306D50748704710F07B
:10438000780FF6D000207047044800EB43107047C8
:10439000B059002064580020D05A0020D059002085
:1043A000014902480AF0BEBF8C5800205825002061
:1043B000014601480AF051BFA82300200022002333
:1043C000014805F0FBB900BFA823002013B5002267
:1043D00001213720FFF7FAFA3720FFF7C7FA124812
:1043E00004F0BEF9114B98421AD10024104803F092
:1043F000D7FB104804F080FE4FF0FF334FF480628B
:104400000D490E48009405F06DFB0D490B480AF06C
:1044100096FE0C480C490AF068FF204602B010BD19
:104420006FF00400FAE700BF294600000000AD0B62
:10443000B1070100A4FE0000408D04205825002093
:10444000A30701008C58002045470000002310B549
:104450000B49D1E8EF2F012A03D1C1E8E03F002842
:10446000F7D10CD151F8044C1439204607F0B6FAB4
:10447000783004D12046BDE8104007F08ABA10BD5C
:104480008458002038B5002464F07F00C0B2FFF7E4
:1044900057FF013407F0B0FD082CF5D100240E4D74
:1044A000E0B2FFF74DFF036903B90561013407F07E
:1044B000A3FD082C05F14005F2D1084807F09CFD4A
:1044C000074BD3F87C2212B9064AC3F87C2206486F
:1044D00007F092FD002038BDF45E0020B0590020A6
:1044E00064580020F45A0020D05A002010B5054C22
:1044F000FFF764FF20B1416820460AF0F4FDF7E7BA
:1045000010BD00BF2823002007B5002300220E485D
:1045100001A904F0A9FF90B1FFF7E8FF00220023F2
:10452000094801A904F0A0FF38B9042301984060AC
:104530000374FFF73DFFFFF733FF002001E0019810
:10454000406003B05DF804FB28230020022810B56A
:1045500011D8094B1C5CFFF7D7FF60B10022047231
:104560000274FFF725FF054B93F824301BB1BDE81B
:104570001040FFF715BF10BDAE07010064580020C2
:10458000F8B5877806463846FFF7DAFE3B0604465C
:10459000F57812D5002D43D1FFF7B6FF034600286A
:1045A0003ED00122A5770274032202739C60FFF7BC
:1045B000FFFEBDE8F840FFF7F3BE4DB1012D2FD14E
:1045C000FFF7A2FF034658B3657705740573EDE75F
:1045D000FFF79AFF20B3B278124B12F0800F02F06F
:1045E000080111D041B1D3F8A836E3600123037468
:1045F000022384600373DAE7142102F00F0201FB47
:104600000233D3F80836F0E711B1D3F8A837ECE756
:10461000142102F00F0201FB0233D3F80837E4E75C
:10462000F8BD00BF00600350F0B5064689B0142203
:10463000002103A80BF016F93378013B052B21D894
:10464000DFE803F07A0314146A16032300248DF8BC
:104650001430FFF759FF0346A0B100F108020474BB
:10466000DDE9050182E8030018461DE00423EDE7BB
:10467000B7783846FFF764FE837A044623B1013BDE
:10468000022B43D909B0F0BD3B06F57813D5002DB8
:10469000F8D1FFF739FF03460028F3D00122A577B0
:1046A0000274032202739C60FFF782FE09B0BDE82A
:1046B000F040FFF775BE55B1012DE3D1FFF724FFA0
:1046C00003460028DED0657705740573EBE7FFF736
:1046D0001BFF07460028D5D0012303740223846002
:1046E000037304F10C01B0780AF085F9134AE1680C
:1046F000B2F88C328B4206D95B1AA2F88C3204F0E5
:104700007DFA3846D0E7A2F88C52FAE7304609B075
:10471000BDE8F040FFF734BF01A804F04DFA9DF862
:104720000530052B04D19DF8043013F0600FA9D09B
:10473000034B012405938CE702248AE76458002088
:10474000D05900202DE9F0438046AC4CDFF8B09200
:1047500085B0FFF733FE074610B905B0BDE8F0831A
:1047600094F825303A7C3BB9002A00F086807968BD
:10477000A3480AF0B8FCECE7042A42D8DFE812F0BC
:104780007D000500FC0012012D013B7BBD68032B61
:1047900037D8DFE803F0023D5A5F00226E69994B7B
:1047A00032607260D3F880143170D3F88414717061
:1047B000D3F88814D3F88C0441EA00217180D3F82F
:1047C0009014D3F8940441EA0021B180D3F89814EE
:1047D000D3F89C3441EA0323F3800823EB6030686C
:1047E0007168894B03C311462B68687A984796F91C
:1047F0000030002B08DBF38833B1A4F88C3204F0CE
:10480000FDF948467968B4E70023A4F88C32F8E74C
:104810006B7F002BF5D02B7F002BF2D000264FF0C2
:10482000FF326E774FF0FF3378482E7707F0F7FBB3
:104830006B6901A901936B68CDE90236687A03F0D0
:10484000D1FF724807F0EDFBDBE701212B68687AA6
:104850009847D6E7AB7A6BB9EB7F5BB96B484FF003
:10486000FF324FF0FF3307F0DAFB04F0FBF9674843
:1048700007F0D7FB02212B68E9E73A7A042AC0D86F
:10488000DFE802F055031F636F0003F033FF0546B6
:104890000028B6D103F0D4FE01235D49D1E8EF2F03
:1048A000002A03D1C1E8E03F0028F7D1A9D141F89F
:1048B000085C41F8105CE0691439636107F011F895
:1048C0009FE7002565F07F00C0B2FFF739FD037A4E
:1048D00013B1407A04F08CFB0135082DF2D194F825
:1048E00054311BB194F8550104F082FB0025E8B265
:1048F000FFF726FD037A13B1407A04F079FB013506
:10490000082DF4D194F874321BB194F8750204F0B8
:104910006FFB002003F0D0FE012384F825302368CC
:10492000002B3FF46EAF00210220984769E7002575
:1049300084F8255004F002FBFFF788FD2368002B64
:104940003FF45FAF29460420EFE7002B3FF459AF57
:1049500003F0DAFE2368002B3FF453AF002105205B
:10496000E3E72268002A3FF44CAF002B3FF449AF45
:1049700000210620904744E708F110054FF0FF336F
:104980004FF0FF32284607F04AFBFFF77BFD284631
:1049900007F047FB58F8283C002B3FF432AF0021CA
:1049A0000120C2E794F874327BB1012584F8895262
:1049B00084F88852FFF7A8FD38B1164A05740573CC
:1049C0008260FFF7F5FCFFF7EBFC58F8283C002B62
:1049D0003FF417AF00210A20A7E704F075FB04F0AD
:1049E000ADFA03F023FEFFF781FDFFF74BFD04F066
:1049F00063FB094803F0B4FE03E700BF64580020DE
:104A00002823002000600350685800209C58002094
:104A100084580020D05A00202946000038B5154D92
:104A200095F8244024BB05F138000AF0A1FB0220D0
:104A300000F040FB22460121E8613620FEF7C6FF68
:104A400004F03AFBFFF71EFD044610B9012385F878
:104A50002430094B1B680BB1FFF7A2FC074BD3F8BE
:104A60000034DB0702D50020FFF770FD204638BD7B
:104A70000024FBE764580020A823002000700350A6
:104A800010B54FF0FF324FF0FF330B4807F0C7FA75
:104A9000FFF72CFD03F02EFE08B104F04FFA0024BE
:104AA000FFF7D4FC04F010FB044880F824403830B1
:104AB00007F0B7FA204610BD9C580020645800202B
:104AC000074B93F824203AB193F82530002B14BFFC
:104AD00000206FF0120070476FF01200704700BFA7
:104AE0006458002038B5104B044693F82430C3B105
:104AF00005782846FFF724FC10B96FF0150038BD83
:104B0000457223798372638843602078618810F04E
:104B1000080F02D14B1E0B42EFD109F067FF0020B6
:104B2000EDE76FF01200EAE76458002038B5124B49
:104B3000054693F82420CAB193F82530B3B1FFF7A6
:104B4000FFFB0446A8B1837A012B12D007D9023BA0
:104B5000012B07D900206369E060A36138BD04F030
:104B600089F8F7E7284603F0F9FFF3E76FF0120042
:104B7000F4E76FF01500F1E76458002038B50E4BEC
:104B8000054693F8242082B193F825306BB1FFF7E6
:104B9000D7FB68B115F008040AD1284604F000F8E4
:104BA000284604F079FA204638BD6FF01200FBE782
:104BB0006FF01500F8E700BF6458002038B50C4BC3
:104BC000054693F824200C4662B193F825304BB18A
:104BD000FFF7B6FB48B144B1284603F0C7FF207089
:104BE000002038BD6FF01200FBE76FF01500F8E70A
:104BF0006458002070B5134E044696F82430C3B1B3
:104C0000FFF79EFB0546B8B1230705D4204603F005
:104C1000C7FF204604F040FA2B7A83B901232B7298
:104C200096F825300BB9002070BD204604F0E0F95D
:104C3000F9E76FF01200F7E76FF01500F4E76FF097
:104C40007700F1E7645800202DE9F043DFF8E480B5
:104C50001E4698F8243007468946154685B0002B35
:104C600061D098F82530002B5DD003065ED5FFF7A4
:104C700067FB0446002859D0037A002B56D04FF02A
:104C8000FF334FF0FF3208F1380007F0C8F9A37F77
:104C90004BB108F1380007F0C4F96FF00A04204660
:104CA00005B0BDE8F083A37AC5B13BB301234FF053
:104CB0000008A377384601A9CDE90195CDF80C800D
:104CC00003F090FD1C4B984229D084F81E801EBB37
:104CD0006FF00404194807F0A4F9E0E7E27F02B19D
:104CE000E577002BE2D103F0CDFFB842DED003F030
:104CF000B9FF124807F095F90024D0E7B8F80A3058
:104D0000AB42F0D96268B5FBF2F302FB1353002B00
:104D1000E9D10123E377E6E7C6F80080D8E706B1DA
:104D200035600024D6E76FF01204B8E76FF0150481
:104D3000B5E700BF645800200000AD0B9C58002070
:104D40002DE9F0411D46204B174693F824200E46CE
:104D5000002A33D093F8253083B3030631D401B948
:104D60007FBBFFF7EDFA044658B3037A4BB34FF01D
:104D7000FF334FF0FF32154807F051F9E368B846AA
:104D80009F4228BF984646B93FB905B12B600F48EE
:104D900007F047F90020BDE8F08142463046A1699E
:104DA0000AF039FDA3694344A361E368A3EB080358
:104DB000E360002DEBD0C5F80080E8E76FF012004B
:104DC000E9E76FF01500E6E7645800209C580020E2
:104DD00070B51E4D034695F8242082B395F8252022
:104DE0006AB31B062ED4FFF7ABFA044650B3037A1E
:104DF00043B34FF0FF334FF0FF3205F1380007F0B7
:104E00000EF9E368B3B9012663692677A361637F6E
:104E100083B1FFF779FB30B905F1380007F001F9EC
:104E20006FF00B0070BD067484600673FFF7C0FA64
:104E3000FFF7B6FA064807F0F4F80020F2E76FF043
:104E40001200EFE76FF01500ECE700BF6458002098
:104E50009C58002010B5084B0C4693F824302BB119
:104E6000FFF76EFA28B10460002010BD6FF0120049
:104E7000FBE76FF01500F8E764580020014B18605D
:104E8000704700BF6458002008B5074B93F82430E2
:104E900023B1FFF755FA20B1406808BD6FF012004A
:104EA000FBE76FF01500F8E764580020084B70B579
:104EB000C31A0D4607499B10044659434022064831
:104EC00007F00DF92B4601462046BDE87040184713
:104ED00008610020B76DDBB650F90000402373B5C0
:104EE0000B4C0093041B0B460D460A49A41061436A
:104EF0000646094A094807F01FF9011E05DA30463F
:104F00002B4602B0BDE87040184702B070BD00BF2C
:104F100008610020B76DDBB6A5C1000050F90000A4
:104F20002DE9F8430022012106460520FEF74EFD3B
:104F3000114802F0A3F9114B984219D102F0AEF9D1
:104F400000244FF01C090C27DFF8348035694146F6
:104F500009FB045006F0B2FC002807DB012307FB25
:104F600004551C44042CAB67F0D10020BDE8F88345
:104F70006FF00400FAE700BFB94F00000000AD0B6E
:104F8000ACFE000001460C2300224B4370B50848DC
:104F9000C41878331844D4E91C56226707F08CF8FB
:104FA0002DB132462B46BDE870400248184770BD0F
:104FB0000861002050F90000062812D8DFE800F050
:104FC000040F1111110D0B00064B986F10F0070024
:104FD00007D1FFF7D7BF0220FBE70320F9E7012045
:104FE000F7E770470861002008B54FF02003EFF3A2
:104FF000118183F31288BFF36F8F124A136843F055
:1050000002001060DA0708D481F31188BFF36F8FB4
:10501000BDE80840012009F02FBB4FF05023D3F822
:105020000C24D3F80C34DB07EED5074807F044F81E
:1050300081F31188BFF36F8FBDE808400020FFF7B0
:10504000A1BF00BFA8610020806100201FB5002221
:105050000123CDE902236B46084ACDF800D0CDF8F4
:1050600004D007F098F8002805DB4FF480420023B5
:10507000684604F0FBFB05B05DF804FBDBC10000F3
:1050800010B54FF02003EFF3118483F31288BFF3C0
:105090006F8F074A136823F00201DB07116002D407
:1050A000012009F048FB84F31188BFF36F8F10BD16
:1050B000A8610020C3B21C20014A03FB00207047F6
:1050C000086100202DE9F041012207463749D1E867
:1050D000EF3FC1E8E02F0028F9D133B93449354812
:1050E0004B60CB608A6006F0FCFB7B1E012B2BD84B
:1050F000012F07D14FF05023D3F81C3403F00303E2
:10510000022B21D00AF015F80546F8B92A4B1B7876
:10511000E3B14FF0502302220646C3F808234FF0B4
:105120005024DFF89880D4F81824D4F81834D20327
:1051300016D503F00303022B01D0012F10D175B354
:1051400086F31188BFF36F8FBDE8F0814FF0200325
:10515000EFF3118683F31288BFF36F8F0125DEE72B
:10516000C5B13046FEF7F0FBD4F81835DBB2012BA1
:10517000D9D1D4F80421002AD5D00022C4F80421C2
:10518000D4F804210222C4F818252022C8F880216E
:10519000A360C8E70021212004F0C8FFE4E74FF036
:1051A00050230222C3F80423CEE700BF046100208D
:1051B000F4600020246100203789042000E100E031
:1051C00008B5074809F05CFF38B10648FFF782F8D8
:1051D0000448FCF763FA002008BD6FF01200FBE7FB
:1051E000A0F90000E95100000A2838B50446074D2F
:1051F00004D1AB680D2128465B689847AB6803482B
:105200005B68E1B29847204638BD00BFA0F90000B6
:105210000048704734FF00002DE9F74F43680F1E28
:1052200004461646D3F818A0C0F28580BB18534533
:1052300000F2818047EA0205C5F30B05002D7AD103
:10524000006906F0D5FF2946204607F019F8054603
:10525000002E66D10121204607F012F8002D4CD017
:1052600058E000229046354B597881B10BFA01F095
:1052700037EA00000BD101208840B04207D8B8F1CE
:10528000000F3CD098F80100884238BF98460132A0
:10529000042A03F10203E7D1B8F1000F31D0002353
:1052A000812298F800102046CDE900333B4606F0F5
:1052B000A5FF012398F8012020469340F61A1F44C9
:1052C00007F01EF8002EC5D00023802206212046BC
:1052D000CDE9009906F092FFB245C2D1C721002363
:1052E00080222046CDE9009906F088FF204607F08D
:1052F00007F80121204606F0C3FF05460AE098465C
:10530000C5E7204606F0FCFF0121204606F0B8FF65
:105310006FF01505206906F069FF284603B0BDE867
:10532000F08F18B981464FF0FF3BCDE701212046B1
:1053300006F0A6FFEEE76FF01505EEE7E9070100BE
:105340005818B0F5802F10B506D8002904DB41EAC3
:10535000030010F0030003D06FF0150008E00430E4
:105360009842FCD30648134401449A4201D10020DC
:1053700010BD087812F8014B204001F8010BF4E74A
:1053800006890020024B0B6001231360704700BFA9
:105390003CFF00000048704744FF000038B58B1800
:1053A000B3F5802F1BD8002919DB41EA0205C5F3AC
:1053B0000B05A5B90B4B21F47F6121F00F01140BF4
:1053C0000B44A54201D1002038BD18464FF480524D
:1053D000FF210AF047FA013500F58053F1E76FF03D
:1053E0001500F1E706890020104608B51A460B445F
:1053F000B3F5802F07D8002905DB044B19440AF0C8
:105400000AFA002008BD6FF01500FBE706890020AE
:1054100008B54FF48022FF2102480AF023FA002049
:1054200008BD00BF068900204FF4802301480B60AF
:10543000704700BF06890020024B0B6001231360F8
:10544000704700BFC46100200048704774FF00002F
:1054500010B501220648114609F00AFF09F0DCF9EF
:10546000044C206009F0D5F96060002010BD00BF39
:10547000CC610020C461002070B50C46154609F0CF
:10548000C8F929460646204607F083F808B3B4FB5E
:10549000F6F306FB1343E3B9B5FBF6F306FB135330
:1054A000BBB9AE4201D9002070BD4FF0FF324FF0C2
:1054B000FF33094804F0DAF909F0ABF90646204653
:1054C00002F040FBAD1B3444F9D1034804F0AAF9C3
:1054D000E9E76FF01500E7E7CC610020F8B50E466C
:1054E0001946304617461C4607F053F808B344EAFD
:1054F000060515F003051CD1A4B14FF0FF324FF0A3
:10550000FF330D4804F0B2F924F00304A54206EB82
:10551000050009D1094AD2F80034DB07FBD506485B
:1055200004F080F90020F8BD795902F029FB043518
:10553000ECE76FF01500F6E7CC6100200090035017
:1055400030B5406801F01F04057BB2F5001F85B03F
:1055500044EA451405D1204602F0A8F9002005B020
:1055600030BD0025B2F5800FCDE9025514D1B3F15D
:10557000007F0CBF042305238DF80830002320464C
:10558000194602AA01F0B4FF224B98423CD10121F6
:10559000204602F03FF9E1E7B3F1C06F27D0B3F145
:1055A000007F14BF012302238DF80830836823FA9B
:1055B00001F111F00101E1D1B2F1A07FDED104F0DF
:1055C0001F03620903F1800313D0012A1FD1124A7D
:1055D00052F82330DB07D1D40DF1070529462046C8
:1055E00002F0C2F80D4B984205D00395C6E703239D
:1055F000DAE70B4AECE7284602F006F9054B984239
:10560000F3D06FF00B00AAE76FF01500A7E751F891
:105610002330FFDE0000AD0B002884500400AD0BEA
:105620000025845010B502F0DFF8044668B902F096
:10563000B3F8084B98420AD12146074802F08EF889
:10564000224605210D20FEF7C1F9002010BD6FF0A4
:105650000400FBE70000AD0B5D5600004209034665
:1056600070B502D0012A17D070BD0D4E3269516855
:105670000029F9D0012503F01F030C689D40002983
:10568000F2D08A682A4002D030464B6898472CB145
:10569000236821461C46F2E7024EE7E72346F8E777
:1056A00078F9000064F900002DE9FF41476801F036
:1056B0001F053B7B144645EA43150E4628460DF16F
:1056C000070102F051F814F4403F80460DD12846FE
:1056D00002F012F93C4B984503D19DF8070002F007
:1056E0008DF8002004B0BDE8F0810023284619465B
:1056F00002AACDE9023301F0FBFE334B984214D1EC
:10570000804503D19DF8070002F078F8A3034CD53B
:1057100040F206332340B3F5837F1AD00DD8062B11
:1057200018D005D8B3B1022B32D06FF01500D9E7ED
:10573000B3F5807FF9D101230CE040F202229342BD
:1057400028D0B3F5407F27D0B3F5007FEDD10223F9
:1057500000E007238DF8083084F48033C3F300435E
:10576000E0068DF809304CBF0323C4F34013210336
:105770008DF80A3012D501237A68B3409360002275
:10578000284602A901F06CFF0F4B9842A9D0CCE744
:105790000423DFE70523DDE70323DBE7620341BFE3
:1057A00001237A68B340D360E9E7E3064FF00003D2
:1057B0004CBF0324C4F340141A46284602A98DF8AE
:1057C000084001F095FEDFE70000AD0B036803F031
:1057D0001F025B09026004D0012B034818BF0020A0
:1057E00070470248704700BF00288450002584504D
:1057F0002DE9F04F154682464FF00108DFF8789109
:1058000085B000EB8101514503D1002005B0BDE812
:10581000F08FDAF8003003F07F04C3F343277F2CC6
:105820004FEA134308BF4FF0FF34222B00F2A18050
:10583000DFE803F012222A422D34429F9F9F9F45AA
:10584000719F9F9F9F9F9F9F9F9F747F82859F9F18
:105850009F888E9194979A00C5F80C45601C1AD0C9
:1058600003A80394FFF7B2FF0126039B08FA03F392
:1058700083604FF0010B2BE0C5F81445631C0AD080
:1058800000264FF0000B23E0C5F80845E6E7621C50
:10589000C5F808456BD10AF1040AB4E7631CC5F8E2
:1058A0000C45F8D0012603A80394FFF78FFF039B54
:1058B00008FA03F3C360DCE7C5F81045DEE7C5F876
:1058C0000845002FDAD1671CE5D000260627B3462D
:1058D000DAF8003003A803F40052002A1CBF0126A6
:1058E0004FF0000B01930394FFF770FF039A019BA5
:1058F00000EB8200D0F80022C3F3C1143B0243EA5C
:10590000840343EA0B0302EA0902134343EA460312
:10591000C0F80032BFE7C5F80C45D2E7C5F86045CE
:10592000661CDAF80030B6D0C3F38033002BB9D050
:1059300096E7C5F86445F3E7C5F86845F0E7C5F8AC
:105940006C45EDE7C5F82445621CA4D0012698E714
:10595000C5F8284582E7C5F83045F5E7C5F8344570
:10596000F2E7C5F83845EFE7C5F83C45ECE7002617
:1059700099E76FF0850049E7F0F0FCFFF0B54B794F
:10598000012B29D0032B24D110278B79032B20D175
:10599000CE790EB1012E1CD10A79012A1ED0022A1D
:1059A00020D0B2B914460B684568B3F5164FD5F848
:1059B00000C06ED033D8B3F5165F6DD01CD8B3F5E8
:1059C000966F6BD010D8B3F5967F6AD0B3F5167F7B
:1059D0006AD06FF085005BE00027D6E74FF4807453
:1059E0000E22E0E70024FBE7B3F5166F5FD0B3F5B6
:1059F000965FEED1384B3CE0B3F5E14F5AD007D873
:105A0000B3F5615F58D0B3F5964FE2D1334B30E038
:105A100047F61225AB42DCD14FF4000329E0B3F581
:105A2000613F4BD013D8B3F5963F4AD009D84DF615
:105A3000C025AB4247D0B3F5614FCAD14FF46B03D9
:105A400017E0B3F5E13FC4D14FF0EB7311E0B3F5CC
:105A5000612F3BD008D8224DAB423AD0B3F5E12FAD
:105A6000B7D14FF0E86304E01E4DAB42B1D14FF027
:105A700080530569CCF8243543683A431B683443A6
:105A80002243C3F86C252B1D03C983E803000020C3
:105A9000F0BD4FF41D03ECE7134BEAE74FF49E23F0
:105AA000E7E74FF4A033E4E74FF41C33E1E74FF4AA
:105AB0001D23DEE70D4BDCE70D4BDAE74FF06C738F
:105AC000D7E70C4BD5E74FF46503D2E74FF070638F
:105AD000CFE74FF08063CCE700B0130000A04E008A
