:020000040000FA
:1000000090320020ED2900009F830000C1290000EC
:10001000C1290000C1290000C1290000C129000038
:100020000000000000000000000000001D2600008D
:10003000C12900000000000089250000C12900003E
:100040000D2700000D2700000D2700000D270000E0
:100050000D2700000D2700000D2700000D270000D0
:100060000D2700000D2700000D2700000D270000C0
:100070000D2700000D2700000D2700000D270000B0
:100080000D2700000D2700000D2700000D270000A0
:100090000D2700000D2700000D2700000D27000090
:1000A0000D2700000D2700000D2700000D27000080
:1000B0000D2700000D2700000D2700000D27000070
:1000C0000D2700000D2700000D2700000D27000060
:1000D0000D2700000D2700000D2700000D27000050
:1000E0000D2700000D2700000D2700000D27000040
:1000F0000D2700000D2700000D2700000D27000030
:100100000D2700000D2700000D2700000D2700001F
:100110000D2700000D2700000D2700000D2700000F
:100120000D2700000D2700000D2700000D270000FF
:100130000D2700000D2700000D2700000D270000EF
:100140000D270000FFFFFFFF53B94AB9002908BF80
:1001500000281CBF4FF0FF314FF0FF3000F00CB80B
:10016000ADF1080C6DE904CE00F008F8DDF804E00C
:10017000DDE9022304B07047704700BF2DE9F04766
:1001800086468C460846089E154674461946002B3E
:1001900040F0C1808542B2FA82F245D94AB1C2F13B
:1001A000200300FA02FC954094402EFA03F343EA40
:1001B0000C0C4FEA154EA8B2230CBCFBFEF80EFB4C
:1001C00018CC08FB00F943EA0C43994528D9EB18F1
:1001D00008F1FF3704D2994502D9A8F102072B4450
:1001E000A3EB0903A4B2B3FBFEFC0EFB1C330CFB18
:1001F00000F044EA0344A04214D92C190CF1FF3357
:1002000004D2A04202D9ACF102032C44241A43EADE
:1002100007401EB1D440002334607360BDE8F0870E
:100220004746DDE76346F1E792BB431B01214FEAF6
:10023000154EAFB2200CB3FBFEFC0EFB1C330CFBC7
:1002400007F840EA0343984561D9EB180CF1FF30F9
:1002500004D2984502D9ACF102002B44A3EB080369
:10026000A4B2B3FBFEFC0EFB1C330CFB07F744EA05
:100270000344A7424DD92C190CF1FF3304D2A742F5
:1002800002D9ACF102032C44E41B43EA0040C0E76E
:10029000C2F120039540944020FA03F12EFA03F3B3
:1002A0004FEA154E9040AFB20343B1FBFEFC0EFB8C
:1002B0001C10190C0CFB07F841EA0041884522D9B3
:1002C00069180CF1FF3004D2884502D9ACF1020064
:1002D0002944A1EB08019BB2B1FBFEFC0EFB1C11F3
:1002E0000CFB07F743EA01439F420ED9EB180CF1D0
:1002F000FF3104D29F4202D9ACF102012B44DB1B37
:1003000041EA004193E76046E3E76146F7E760466C
:10031000A4E76346B8E7834206D916B90021084628
:100320007CE7C6E900E0F9E7B3FA83F78FB98342C7
:1003300001D3724508D8BEEB020460EB0303012031
:100340009C461EB9002169E73846FAE7C6E9004C29
:10035000F8E7C7F1200CBB400EFA07F522FA0CF4BF
:100360002EFA0CF1BA401C4320FA0CF3B8404FEAC5
:10037000144901431FFA84FEB3FBF9F809FB183056
:100380000B0C08FB0EFA43EA00439A4540D9E318E8
:1003900008F1FF3004D29A4502D9A8F102002344A3
:1003A000A3EB0A0389B2B3FBF9F809FB183308FB86
:1003B0000EFE41EA03418E452CD9611808F1FF3346
:1003C00004D28E4502D9A8F10203214443EA004039
:1003D000A1EB0E01A0FB02984145CE46434602D355
:1003E00006D14D4504D20138B9EB020E68EB040387
:1003F000002EA7D0B5EB0E0261EB030101FA0CFC55
:1004000022FA07F3F9404CEA0303C6E9003199E701
:100410004046C5E74346D9E72DE9F04F82461646E8
:100420001C4600259FB00391307810B9284600F093
:1004300083BD731C2528069306D00399D047002856
:10044000C0F27A85013527E21822002110A807F0B2
:10045000D3FF7378252B7DD0002398469E469C467B
:100460001F46701C014610F8012B2B2A00F0A180BA
:1004700000F29880202A00F09F80232A00F09F80BD
:100480002BB19DF8483043F040038DF84830B8F167
:10049000000F05D09DF8483043F020038DF8483018
:1004A000BEF1000F05D09DF8483043F010038DF8E1
:1004B0004830BCF1000F05D09DF8483043F00803E8
:1004C0008DF848302FB19DF8483043F004038DF883
:1004D00048309DF8483003F04400442803D16FF3BE
:1004E00086138DF848309DF848302A2A43F080035F
:1004F0008DF848307FD19DF849204B1C42F0010215
:100500008DF849201A782E2A0CBF012100219DF870
:10051000492061F341028DF8492078D15A782A2A7E
:100520006ED000224FF00A0C0133194611F8010B6E
:10053000A0F13007092F40F2AD809DF848101492C9
:10054000C1F3400040EAD2700A4660F341028DF8E0
:1005500048205CE0B21C06928DF84B309DF8493083
:10056000D90740F1508154F8042B002A049208DA8C
:100570009DF8482042F004028DF84820049A524227
:1005800004925A0740F1478154F8047B002F80F20F
:1005900046819DF849306FF341038DF849304FF0A3
:1005A000FF373CE12D2A0DD0302A7FF469AF0123BB
:1005B00058E74FF0010C55E74FF0010E52E74FF0AE
:1005C00001084FE701274DE703460EFB0272303A60
:1005D000184610F8017BA7F1300CBCF1090FF3D9D4
:1005E00099428FD09DF848101392D20F62F34101C7
:1005F0008DF8481086E70B4600224FF00A0EE7E719
:100600009DF84920023342F004028DF849201A78FF
:100610006C2A5FD043D8682A49D06A2A63D04C2A12
:1006200069D013F8012B782A06938DF84B2000F23D
:10063000A9806D2A6CD8692A00F2A480572A00F29A
:100640008480412A04D0A2F14503022B00F29A8053
:1006500004219DF84A3002F0DF02A2F1410761F364
:1006600002037A429DF849107A4162F3C7110A06E3
:100670008DF84A308DF84910CBB200F1C28003F0FA
:100680007802182A40F0AC806FF3C6038DF8493029
:1006900000239BE00CFB02020B46303A45E7742A2C
:1006A00025D07A2ABDD106219DF849200CE05A7840
:1006B000682A9DF8492006D1012161F3C6028DF810
:1006C00049200233ADE7022161F3C6028DF84920CB
:1006D0000133A6E75A786C2A9DF8492001D10421FC
:1006E000EBE70321F0E705219DF84920ECE707211E
:1006F0009DF84920E8E7BDF8482022F4F04222F0B6
:10070000020242F4804242F00202ADF84820DFE7E4
:100710006E3AD3B201229A4040F282431A429DF8C7
:10072000493036D112F0240F5ED1D1072AD50321EA
:100730009DF84A2003F07803A3F1400061F3020220
:1007400043428DF84A20434140E00120A2F1580184
:10075000C9B200FA01F111F4624F7FF479AF40F6AB
:10076000010319429DF8493019D111F4043F09D011
:100770009DF84A2060F3020203F07803402B8DF8C5
:100780004A2085D19DF8483043F001038DF8483068
:100790007EE702219DF84A2061F30202ECE7022085
:1007A0009DF84A1003F0780360F30201402B8DF8A6
:1007B0004A1002BF9DF8481041F001018DF8481021
:1007C000632A7FF465AF003B18BF01239DF84820E2
:1007D000C2F340010B4363F341028DF84820BDE6AC
:1007E00013F0380FCED153E703219DF84A2013F0C0
:1007F000780F61F3020214BF012300238DF84A2011
:10080000E4E70123E2E79DF94820002AACBF4FF05E
:10081000FF32139AB4E69F077FF5C1AE149F002301
:10082000CDE913339DF84A3003F00702042A9DF8FE
:10083000492007D1900705D49DF949100029ACBF84
:1008400006270D2703F00703012BC2F3C30233D1A0
:10085000D31E042B04D8DFE803F0214646212100F3
:100860002368012A4FEAE371CDE910311CD19DF9CB
:100870004030D917CDE9103104349DF8483099073C
:10088000079350D032465046069B039907F0F0FC80
:100890000028C0F251830544069EC5E554F8043B88
:1008A000D917CDE91031E8E7022AE5D119B243F3AF
:1008B000C033CDE91013DFE7022B24D1D31E042B64
:1008C00004D8DFE803F0181010181800012A4FF0C0
:1008D000000154F8043B14D0022ACDE91031CCD1E8
:1008E0009BB21093C9E7073424F00704F4E802012F
:1008F000CDE91001C1E754F8043B10930023119394
:10090000BBE7DBB2CDE7042B08D1073424F00704A2
:10091000D4E900010834CDE91001AEE7032BACD1D6
:1009200054F8043BDDE79DF84BB0BBF1780FB3D82A
:10093000BBF1570F49D8BBF1250F00F09180BBF1F7
:10094000240FA9D9BBF1410F03D0ABF14502022A14
:10095000A2D8DDE91012002AC0F23681079B1E07DB
:1009600000F13581C3F300194FEA4919C2F30A5067
:10097000C2F31302002840F02D8151EA020614BF91
:1009800001260026D20242EA5152C902BBF1460FAB
:1009900040EA010E42EAE07C08BF4FF0660B5EEAD7
:1009A0000C0CCDE90C1200F09681002E40F0448131
:1009B0000D9AA0F2FE3842F000420D920020DDE9CF
:1009C0000C1206464FF0050C50E1ABF158012029FE
:1009D0003FF662AF01A050F821F000BF670B0000A6
:1009E0009908000099080000990800009908000083
:1009F0009908000099080000990800009908000073
:100A00005309000099080000EB0A0000FF0A0000EB
:100A10005309000053090000530900009908000021
:100A2000FF0A0000990800009908000099080000DA
:100A300099080000A10B0000670B00006D0B00007F
:100A40009908000099080000670A00009908000052
:100A5000670B00009908000099080000670B000070
:100A600058460399EAE4002F109E3ADB3946304697
:100A700007F0CEFC3718002E3FF40EAF4FF0000900
:100A80009DF84A3013F01002059200F04A820230BD
:100A900013F04003DDF84C80089318BF149B4044CA
:100AA00018BFC018049BCDF81C80002B40F3548263
:100AB0009DF848201B1A04935307C2F3800B00F1E2
:100AC0004B82500640F13B82B9F1000F07D04846F7
:100AD0000399D0470028C0F22F82D9460135302231
:100AE0002EE2304607F066FCC4E7109B4FF0000989
:100AF00001208DF85C300DF15D0717AEC0E7079B54
:100B00001A0754BFC3F300194FF02B09DDE9102376
:100B100058BF4FEA4919002B06DA4FF02D0952420F
:100B200063EB4303CDE91023DDE910010DF17503FB
:100B3000009312AA17AB07F055FB0646002F0CDBFB
:100B40009DF848200DF175039B1B6FF386129F42A1
:100B50008DF8482001D9FB1A1393002E3FF49CAE68
:100B60000DF1750756E04FF00009DDE710980028F9
:100B700000F0D2810DF175030093002117AB12AA8A
:100B800007F030FBBDF84A30064603F0EF0343F4AC
:100B9000F04343F010034FF00009ADF84A30CDE7C1
:100BA000109B072A3FF678AEDFE802F00C04060C33
:100BB00008080C0C1D706FE61D806DE6EA17C3E98E
:100BC000005269E61D6067E64FF02D09CEE64FF052
:100BD0002B09CBE640F2FF76B0422AD10A43ABF1B3
:100BE00041031ED11A2B35BF492369234E216E21A3
:100BF00034BF462266228DF85C309DF848308DF86F
:100C00005D106FF386138DF85E208DF848300DF17E
:100C10005F0717AEB81BB9F1000F3FF431AF0130D9
:100C20002EE7192B8BBF6E234E23612141211A46DB
:100C3000E1E70026A6E6013849185241002AFADA0F
:100C4000CDE90C12B4E6490841EAC2715208B2F18A
:100C5000333F404608F10108F5D200F102080120B7
:100C60000CFB02FEA1FB0C12013E724418F1020FB4
:100C7000E9DB08B1CDE90C12DDE90C21B8F1000F78
:100C80002CDCC8F10400A0F1200C08F11C08C240C3
:100C900001FA08F821FA0CFCC1400BF0DF0042EA2F
:100CA0000802472842EA0C0238D1F01C01DBB742A7
:100CB0002ADAABF10203002F5FFA83FB7BDD9DF89C
:100CC0004800013F830676D43B1E18BF01230593DD
:100CD00007F101082CE04FF000086FE6023241F105
:100CE00000010CA808F1FF380136CDE90C2107F00E
:100CF0004AFADDE90C2192184941002908F1FF3830
:100D0000F9DACDE90C21B7E79DF84830BF1B98060A
:100D10004FD43B1E18BF0123059304E00023BBF111
:100D2000660F0593D4D117EB06084FF0660B44D439
:100D3000B8F1100FA8BF4FF010089FEDB37B102043
:100D40008DED0E7B0B90DDE90E03B8F1000F37D16E
:100D5000121841EB0301B1F1805F41D2CDE90C21C2
:100D6000079BBBF1660F03F0200240F0B480002E19
:100D700041DC30218DF85C10002A65D1002F40F352
:100D8000B4812E228DF85D2086B17242BA42A8BF8E
:100D90003A46002A1392A7EB0207D4BF0022012291
:100DA0009DF84A1062F345118DF84A100DF15E0866
:100DB00039E00023B0E7002389E74FF00008BCE7E3
:100DC000400840EAC3705B08CDE90E030EA8CDE9E8
:100DD000082108F1FF3807F0D6F9DDE90821B2E76C
:100DE000520842EAC1720CA84908CDE90C2101362B
:100DF00007F0C9F9B4E70DF15C080B99002909DD8A
:100E00000BA90CA8079207F0D6F9013E079A08F83B
:100E1000010BF2D113969AB9002F40F364812E2171
:100E200008F8011B0026002F17DD0B9A002A14DD9D
:100E30000BA90CA807F0BFF9013F08F8010BF2E776
:100E40002E2208F8012BEDE72E228DF85D20002ED2
:100E5000ACD0002F99DC0DF15E08059B002B4ED124
:100E6000149747460BF0DF02452A23D1002EBABF64
:100E700076422D232B23632EC8BF64217B70C4BF11
:100E8000B6FBF1F301FB13664FF00A01C8BF03F193
:100E90003000B6FBF1F3D2BFBA1CFA1CB87087F869
:100EA00000B0174603F1300001FB1363303307F83D
:100EB000020B5370139B002B2CDC149B002BD4BF14
:100EC000002301239DF84A2063F3861200238DF846
:100ED0004A203B709DE60BA90CA8079207F06BF91E
:100EE000079A30288DF85C0018BF06F1FF3612B95A
:100EF000002F40F3FA802E228DF85D2056E74746FA
:100F000017F8012C08F1FF38302AF8D02E2A08BF34
:100F10004746A7E70123D5E73D4F81467E1F0520C1
:100F2000AEE51A0748BF0130B2E5104609920399B1
:100F3000D0470028099A05DA1FB0BDE8F08F2022BB
:100F4000DDF810B0594600290BF1FF3BEDDC049BA6
:100F5000CDF810B02B445D1AB9F1000F05D048460A
:100F60000399D0470028E7DB0135089B002B7FD091
:100F70009DF94930002B28DBB3469BF80000D94689
:100F8000A0F13003092B0BF1010B48D99DF84A3031
:100F9000AE1B99064E4407D44246002A08F1FF389A
:100FA00042DC079B33449E1A99F800002E280AD190
:100FB0000399D0470028BFDBB8F1000F06F1010606
:100FC00038DC09F101094D463FE0B14699F80000CF
:100FD000C846702809F101091CD1AE1B149D464476
:100FE0003544AB1B002B3BDC3B4642465046039945
:100FF00007F03EF900289FDB3044049E0546064476
:101000006CE000BFAFF300800000000000000008AB
:101010000EA100000399D0470028D7DA8CE7039986
:10102000D0470028A9DA87E730200399D047002865
:10103000B2DA81E730200399D04708F1FF38B9E7E9
:101040000399D0470028FFF677AF2878A846A0F18B
:101050003003092B05F10105F2D9A6EB0906BDE71E
:1010600030200399D0470028FFF666AF0136B8E775
:101070009DF84A30DA0601D41B0706D530200399C3
:10108000D0470028FFF658AF0135059B3BB10399C7
:101090009DF84B00D0470028FFF64EAF0135A8441D
:1010A00006E030200399D0470028FFF645AF013510
:1010B000A8EB0503002BF4DC3B463246504603996F
:1010C00007F0D6F80028FFF637AF284495E7202030
:1010D0000399D0470028FFF62FAF0135731B002B73
:1010E000F5DCFFF7D9BB1646B7E60DF15D08B4E6AF
:1010F0007FB5244B244AC3F80026C3F80426C3F85E
:101100000826C3F80C26C3F81026C3F81426C3F823
:101110001826C3F81C2606F050FB00F039FA0546E5
:1011200001A800F081FC0446284600F041FA174B64
:101130001B68A34201D006F043FC69469DF80800F5
:1011400006F01AFB009B039C1C44019B1D8902F0C6
:10115000CBFE661900F08EFE00F05EFE00F078FE19
:10116000002383F30B8883F30A88625982F308888B
:1011700083F31488BFF36F8FBFF36F8F7368984743
:10118000FEE700BF008001503546526E0800002087
:1011900021B1012906D06FF015007047044B53F8B8
:1011A00030007047024B03EBC0035868704700BF24
:1011B000D89B00002DE9F04F864FDDB01446DDE9E5
:1011C00068891D46DDF8A8B13E6800F0EFFD0122F8
:1011D000814B3CA8C3F8002505F008FAB8F1000FD0
:1011E00007D0B9F1000F04DD4A4641463CA806F09D
:1011F000BCFE4FF0000823896289D4F80CA0134488
:101200009A44C24558D80FA93CA805F061FA0022BB
:10121000714BC3F80025C3F80025BBF1000F04D0C3
:10122000202258460FA907F0DCF800232A46009335
:1012300021464FF6FF7309A806F0C0FA0390002874
:101240004BD128460E9C06F0ACFB844245D84FF0AB
:10125000FF34DFF88CB1DFF880910DF11E0307AA8F
:1012600008A909A806F0F8FA002836DB40F0A880A3
:10127000BDF81EA0BAF1100F38D1BDF81C80B8F12E
:10128000200F2AD14346284608993CAA07F009F8BE
:1012900018BB00F07DF9424682463CA90FA800F039
:1012A00025F98046504600F083F94C4B1B684345B6
:1012B00013D101230393D0E7679BAAEB0809994553
:1012C00028BF994641464B462846669A06F0E9FFF4
:1012D00028B10022404BC3F800253E6873E04A461F
:1012E00066993CA806F041FEC8448AE7BAF1010FAE
:1012F0003FD1BDF81C30202BEFD8284608993CAAD6
:1013000006F0CFFF04460028E7D19DF81C30202BC3
:1013100004930AD8DBF80030DFF8C8800593059BFA
:101320009C4205DB0023C9F800354FF0FF3494E7F9
:1013300000F03CFDC9F800A51FA805F057F9D8F842
:1013400004201FA8126858F8081B06F00EFE17A903
:101350001FA805F0BDF90022C9F80025049A3CA990
:1013600017A807F02EF810B9C9F8000575E7013481
:10137000D5E7BAF1220F7FF470AF631C3FF46DAF75
:10138000DBF80030A342D0DDBDF81C30802BA4D8A0
:10139000284608993CAA06F084FF00289DD100F059
:1013A000F7F8E4B280462021BDF81C303CAA009436
:1013B0000FA800F019F80646404600F0F9F8B4E727
:1013C000039B002B89D000F0EBF830465DB0BDE800
:1013D000F08F00BF040000200000845008000020AF
:1013E000E09B0000E49B00002DE9F04796B0164614
:1013F0001D469DF87820384B074653F8321003EB12
:10140000C2035B6801911868DFF8DC800144302377
:1014100002AA01A8D8F8009006F035FD002851D1A5
:10142000DDE901431C44214606AB03AA01A806F0EE
:1014300052FD002846D1049A072A43D1274905982E
:1014400006F0BFFF00283DD1079A082A3AD1244967
:10145000089806F0B6FFA8BB214602AA01A806F02C
:1014600026FD78BBDDE901A30AEB0302944229D1F2
:10147000412B27D135443023294603AA02A80296DE
:1014800006F001FDE0B9DDE9023213449D4217D3B5
:101490002A4602A906A806F02BFA88B92A4602A90C
:1014A0000EA806F025FA58B99AF80030042B07D197
:1014B0002023384606AA0AF1010100F08FFC38B15A
:1014C000D8F8009000F06CF8484616B0BDE8F087F8
:1014D000044BD3F80090F5E7E49B000095A00000D2
:1014E0008CA00000080000200400002070B5094B0B
:1014F00004461D680023934205D1074B1D6800F088
:101500004FF8284670BDE65CC85C8642F7D10133CF
:10151000F1E700BF0400002008000020094A400055
:101520000B7852F820108B4209D0013052F820007D
:10153000834214BF4FF0FF304FF4407070474FF4B8
:1015400040707047EC9B00001FB50F4B0C4613F822
:10155000300000F02BFE50B92068102381686A46E5
:10156000103906F09EFE28B1206806F099FE4FF073
:10157000FF3006E010226846044906F022FF0028EA
:10158000F2D104B010BD00BFEC9B00007CA00000B5
:10159000024B1868421C1A60704700BFC00300204D
:1015A000024A1368013B1360704700BFC00300206C
:1015B000034B1B68834201D006F002BA704700BF9C
:1015C000C00300202DE9F04F3D4B8BB006460020B4
:1015D0000D461C68FFF7DCFD08A9C0B200F0E6FD6F
:1015E00028B1FFF7DDFF20460BB0BDE8F08F29469C
:1015F000FFF7CEFD4FF02C0B09A9C0B20BFB056B1A
:1016000000F0D4FD00283FD02C276F4306EB0708DD
:10161000D8F8104014F0100447D1FFF7B9FF089B29
:1016200081460793FFF7B4FF4FF480720192254A79
:1016300021468246CDE90344079B0294009220464E
:101640005A46FFF7B7FD04465046FFF7B1FFFFF7D4
:10165000A7FF4846FFF7ACFF1B4BF25908989A4288
:101660000CD1D8F80C20B8F808309B1806D2826844
:10167000934203D2154B1B68A3421DD0D5B1002164
:10168000826806F038FE15E0099806F051FE04461F
:10169000099806F005FE0BF1FF330BF1030213F876
:1016A000011FA142B0D19342F9D11DB13046089932
:1016B00006F05CFA064B1C68089806F0F1FD90E70E
:1016C000040000203C2000203DB8F39608000020D4
:1016D000000000207FB50D46002104462846CDE9D4
:1016E000021106F002FAE8B12368154EB34203D1A5
:1016F000204603AA06F08DF9E36AB34204D1012122
:10170000204602AA06F085F9DDE90232934288BF3D
:101710000393039BAB6029462046039A00F064FACA
:1017200004B070BD01A9FFF70FFF019805F1080192
:1017300006F01AF9AB680198039306F0B1FDEAE7E9
:101740003DB8F3962DE9F84F884691469A46002613
:10175000DFF870B0194C1A4D0B9B9E4201D300204C
:101760000FE00B9B40469F1BB7F5806F28BF4FF4DF
:101770008067144A3B4606EB0A0106F092FD10B161
:101780000120BDE8F88F0A993B465A464846711831
:1017900006F09CFD0028F3D1C4F800563E44C4F87E
:1017A0000456C4F80856C4F80C56C4F81056C4F8C9
:1017B0001456C4F81856C4F81C56CDE700800150E2
:1017C0003546526EC41300202DE9F0410E4600212B
:1017D000904B86B04362904B044603650846FFF782
:1017E000D7FC04F12001C0B200F0E0FC0121002090
:1017F000FFF7CEFC04F14C01C0B200F0D7FC20464C
:1018000006F048F9002849D100222046114606F08A
:10181000EAF8002859D1204606F0A4FA002854D04E
:1018200002A806F059F90146204606F0F3F900280F
:101830004BD102A806F059F980F0010102AA204616
:10184000C9B206F0D0F8024600283ED102A806F040
:101850004CF90546E8BB204602A9FFF73BFF9DF87F
:101860000F3084F85830033B012B06D8284600F08F
:101870000BF910B1FF2384F858309DF80F30023B6C
:10188000022B06D8002000F0E9F810B1FF2384F8FD
:10189000583094F85830FF2B12D1FEE701239842BC
:1018A00084F85830B0D194F85830042B8DF80F30AC
:1018B00045D8012B49D85BD0FF2384F8583057E036
:1018C0000021204602AA06F08EF8012384F8583041
:1018D000E9E79DF80F70012F1ED1104602F092FB30
:1018E000831E022B054614D8FFF752FE3946804668
:1018F0002046FFF767FE07464046FFF759FE474B75
:101900001B689F4205D0464B1D68AF4214BF05259A
:10191000012584F85850C6E7FFF73AFE0121074633
:101920002046FFF74FFE05463846FFF741FE3B4B8A
:101930001B689D4214BF05239DF80F30C6E7052B99
:10194000BAD1002000F0A0F810E0204602A9FFF76D
:10195000C1FE94F85830DA1E012A2DD8002000F07C
:1019600093F80028A8D1002000F078F80028A3D12F
:1019700094F85830FF2B01D106F022F8002194F89A
:101980005830284D012B019119D0204602AA06F0AB
:101990002AF8A0B12D681022002102A806F02CFD23
:1019A000E06C06F07DFC206A06F07AFCFFF7F8FD9B
:1019B000284606B0BDE8F081022BD9D1D3E7FFF766
:1019C000E7FD002180462046FFF7FCFD0746404624
:1019D000FFF7EEFDDFF84480D8F80030BB42D9D1E4
:1019E0002A689A42D6D00E4A12689A42D2D0019BF7
:1019F00001330193019B012B01D005F0E1FF206A27
:101A000005F0C0FE3071236A5B683460D8F800507E
:101A1000B360C0E7C40B0020C4030020080000200E
:101A2000000000200400002070B50B4E0446602228
:101A30000021304606F0E0FCFFF7AAFD21460546EE
:101A40003046FFF7C1FE04462846FFF7B1FDFFF719
:101A5000A7FD204670BD00BFC417002013B5094B79
:101A600001A913F8300000F0A1FB48B9019807F074
:101A7000A4FB0446019806F013FC204602B010BDFA
:101A80000124FAE7F49B00001FB50F4B01A913F8DE
:101A9000300000F08BFBA8B9019802A902F05CFAB3
:101AA000044668B99DF80B30032B03D1019807F069
:101AB00052FB0446019806F0F3FB204604B010BD2B
:101AC0000124F7E70124F8E7F49B00002DE9F34136
:101AD00006460C4617461D460BB9002628E0184658
:101AE00006F003F80028F8D16946FFF72DFD0098AD
:101AF00038B90124009806F0D3FB204602B0BDE8B7
:101B0000F08101A905F030FF0028F2D1009806F01D
:101B1000C7FB3046019906F0BAF8736A5E686B79C4
:101B2000012B21D1002CD8D12B68834298BF0026ED
:101B300021460020FFF72CFB6946C0B200F036FBBF
:101B40000028D6D120233A463146009806F0A9FB5A
:101B500004460028CDD1002DCCD03C680D4BE41AB2
:101B600018BF4FF0FF34C5E7022BB6D12B68012B0D
:101B700005D98342B1D8B4FA84F46409ADE7ACD195
:101B8000002CD5D0012CA8D12C79023C18BF0124FF
:101B9000A3E700BF3DB8F39673B54B681446114AEE
:101BA00003F0FF23934206460D4618D10B68012B24
:101BB00015D16946204602F0CFF99DF80030032B7D
:101BC0000DD12146304605F0D1FF204607F0C3FA7B
:101BD0002046A96805F0D6FE204602F09DF902B025
:101BE00070BD00BF000100042DE9F04F054689B02B
:101BF0000C46114606F04BF86B6A039020465E686F
:101C000005F073FF90B1E86D05F09EFE0022AB6A0F
:101C1000013B3244904201D9013BFAE7039A9342D7
:101C200004D80123E37109B0BDE8F08F06A90320B1
:101C300000F0BCFA07A9092000F0B8FA21462846AE
:101C4000079AFFF7A9FF6379012B4BD1039FDFF8B8
:101C500058B141E022680399C2F101030B44BB4231
:101C600039D36B6A012A196853F8370003EBC703AD
:101C700053F8083CA0EB0109A3EB010A11D1079B23
:101C80000493E368022B08D04146284605F06EFF16
:101C900022464146284605F09EFF2846049905F055
:101CA00065FF32464946404605F05EFF53464246D0
:101CB00041462846CDE90096FFF744FD21462846D7
:101CC00005F020FF23680133236020B1DBF80030EA
:101CD0000133CBF80030013FDDF81880002FB9D177
:101CE00001232360022301276371039BDDF8189011
:101CF0009F4206D9484606F0D3FA079806F0D0FA74
:101D000091E72368BB424DD86A6AFB0052F837104E
:101D1000083BD2F800B00491D1582A6DDDF81CA020
:101D2000D0581368A0EB03082379012B38D1A1EB1D
:101D30000B0132464846059105F016FF05994346CA
:101D40004A460091284651460196FFF7FBFC214682
:101D5000284605F0D7FE0223237118B1124A1368F2
:101D60000133136032464146504605F0FDFE049BA8
:101D70005246A3EB0B0349462846CDE90086FFF700
:101D8000E1FC2146284605F0BDFE236801332360AF
:101D90000123237130B1044A13680133136001E059
:101DA000022BDFD00137A0E72418002070B5094DC1
:101DB0002B780BB1002070BD0126074CC4F80065DC
:101DC00004F0B6FC18B92E70C4F80005F2E74FF025
:101DD000FF30F0E73C210020000084502DE9F04165
:101DE000ACB01F4606460C461546FFF7DFFF012341
:101DF000DFF820802A46C8F8003521463346009790
:101E000003A807F0F6FC0023C8F800352CB0BDE8A5
:101E1000F08100BF00008450BFF36F8F72B60023C3
:101E20004FF0FF30094A03F120010133102B42F833
:101E30002100F8D100234FF0FF30044A03F1600184
:101E40000133102B42F82100F8D1704700E100E087
:101E5000002318460649D1F89020C2F30722934286
:101E600000DB7047C1F89830C1F8A0000133F6E7F5
:101E700000ED00E038B501224FF0FF3400251A4B89
:101E800029465A60C3F84843C3F8084303F5805312
:101E90005A60C3F84843C3F80843A3F55043C3F856
:101EA00000558022C3F80843104806F0A5FA8022A6
:101EB00029460F4806F0A0FA0E4B8022C3F80055C1
:101EC0002946C3F808430C4806F096FA80222946B2
:101ED0000A4806F091FA0A4BC3F808454FF0502320
:101EE000C3F8084338BD00BF004001508080005057
:101EF00080810050009000508090005080910050F0
:101F000000700150014B1B68184700BF0C000020F7
:101F1000014B1860704700BF0C00002007B50B464E
:101F20000021024600910348FEF776FA03B05DF8FF
:101F300004FB00BF051F00002DE9F047058B044698
:101F40002807904611D4022905F0070540F0CD80FE
:101F5000204606F03EF878B10138218B042811D8CC
:101F6000DFE800F0C3106D85950001290CBF45F036
:101F7000100545F02005258388F31188BFF36F8F86
:101F8000BDE8F08701F0070AAA4500F0A680002707
:101F9000B9463E46A368002B00F0BD8041F0080121
:101FA000218388F31188BFF36F8FA168002900F0A7
:101FB000BB800D68002900F0B780334652462046AA
:101FC000D1F80480C047002D76D02B6829461D46E5
:101FD000F0E701F007035A1F012A1BD8002221F065
:101FE0000701062B276889B2C4E9002209D13B46C4
:101FF00003E0628B013262831B68002BF9D141F050
:1020000002012046218305F0E4FF00287BD041F047
:10201000200177E0042B0AD121F0070189B2204684
:10202000218305F0D6FF10B141F020012183218BDF
:1020300001F0070AAA4550D00027B946AAE723694C
:1020400021F0070141F00601062DD3F8009021830D
:102050002DD1B9F1000F40D041F00801218388F360
:102060001188BFF36F8F20463949C84729E021F016
:102070000701236941F0040189B2042DD3F80490CB
:102080002183E6D000274FF0040A3E4682E721F084
:102090000701236941F0050189B2052DD3F80890A5
:1020A0002183D6D000274FF0050A3E4672E700276D
:1020B0004FF0060A3E466DE72B4687E7B9F1000F61
:1020C000D1D14FF02003EFF3118883F31288BFF3CF
:1020D0006F8F238B23F008032383258BEA062ED5ED
:1020E00025F01003238305F007056669218B002E78
:1020F000BFF66FAF00232768C4E9003321F0070162
:1021000041F001012183218B4FF0000901F0070A02
:10211000AA457FF43FAF002F9BD041F008012183F7
:1021200088F31188BFF36F8F002FC7D03D68394601
:1021300033465246204605F078FF2F46F4E7AB06BB
:102140007FF51AAF25F02003238305F00705FFE68E
:1021500057800000044608B54FF02002EFF31183CA
:1021600082F31288BFF36F8F01F0BEFE204600F0AD
:102170006DFC034805F016FF00F05AF9FCE700BFBC
:102180000FA100000122024B0020C3F84025704738
:102190000090035020B1034B800143F00103184726
:1021A000704700BFD09B000001F0BCBF70B5114B61
:1021B0000D461C68DCB1104B196800238B4202DB12
:1021C0006FF0010070BD224612F8106B864202D0FB
:1021D00014460133F2E7E06810B96FF01200F1E73E
:1021E00007F0A7F90028F8D000202C60EAE76FF08C
:1021F0000C00E7E710000020009C000070B588B0DC
:1022000005460C46C0B269461646FFF7CFFF0028C8
:102210001BDB0098C8B1436822680293836801956C
:10222000CDE903360023CDE906230593C56806F002
:1022300037F86DB12846084901AA06F0ACFC0798AA
:1022400008B9059B236008B070BD6FF01500FAE770
:102250006FF01200F7E700BF3F830000014803F072
:10226000D3BE00BFB49C000038B5044618B90F4B6C
:102270000F485B6898476168B1F5683F10D0B1F5C9
:10228000680F0DD00B4DA9420AD011F46861206887
:1022900007D00146084807F09AF9002323606560DB
:1022A00038BD142206F0A8F8F9E700BF3C01002071
:1022B0003CA100002C5F5CA9281D002008B500B3DC
:1022C0004368B3F5683F0CD101220368D3E8EF1FE0
:1022D000002903D1C3E8E02F0028F7D10DD1002059
:1022E00008BD094A93420AD000684FF0FF324FF010
:1022F000FF3303F07BF80028F1D00448F0E70448EE
:10230000EEE76FF4E040EBE72C5F5CA9E98FFFFF9D
:10231000EA8FFFFF08B5B8B14368B3F5683F0CD149
:1023200000220368D3E8EF1F012903D1C3E8E02F9F
:102330000028F7D10BD1002008BD074A934208D0EE
:10234000006803F0CDF8F6E76FF4E040F4E70348E7
:10235000F2E70348F0E700BF2C5F5CA9E98FFFFFBD
:10236000EA8FFFFF10B5044618B91D4B1D485B6886
:1023700098476368B3F5683F2FD0B3F5680F2CD04A
:10238000194A934219D1236803BB4FF0FF324FF033
:10239000FF332146154802F06FFF08B923681BB9C7
:1023A0000F4B13485B68984714220021206806F001
:1023B00023F84FF46863636008E0B3F5683F0DD815
:1023C0003A2B03D040F6BA629342DED1206807F080
:1023D0003EF9636843F03A03636010BD054AF3E7D2
:1023E0003C0100203CA100002C5F5CA9281D0020BE
:1023F00062A100003A00003A08B5064940231422C1
:10240000054807F0D6F8BDE808400449044803F041
:102410006DBE00BF28180020281D0020BC9C0000B5
:10242000D09C0000014910220A60704710ED00E0C6
:1024300072B6404080F31188BFF36F8FBFF34F8FA8
:1024400030BF62B6BFF36F8F704700BF72B64940AE
:1024500081F31188BFF34F8F20BF80F3118862B6DC
:10246000704700BF40B2002807DB01234109034A3F
:1024700000F01F00834042F82130704700E100E087
:1024800040B200280CDB01220649430900F01F007E
:102490008240203341F82320BFF34F8FBFF36F8F6B
:1024A000704700BF00E100E0054B420953F82220CD
:1024B000012300F01F0003FA00F01040704700BF36
:1024C00000E100E040B2002801F10101ACBF00F1E1
:1024D0006040064B4FEA4111C9B2ABBF00F5614005
:1024E00000F00F0080F800131954704714ED00E05D
:1024F00030BFFFF7FDBF00BF144A08B5144B22F0F0
:102500007F029A60BFF34F8FBFF36F8FD3F888209D
:1025100022F47002C3F88820D3F8882042F4A00285
:10252000C3F888204FF04042C3F83422BFF34F8FE6
:10253000BFF36F8F0023E1EE103A02F0D7FD03F0F6
:10254000BBFB00F047FA02F01BFE00BF00000000DA
:1025500000ED00E0094A0A499368096858679967DD
:1025600008494B6843F080534B60002383F3118884
:10257000BFF36F8F9368986F704700BF2C1E0020C9
:10258000EC9E000000ED00E022498A6882F8BDE080
:102590004FF030001044EFF3098C80E8F01F1EF07C
:1025A000100F03D102F17C0080EC108A202080F310
:1025B0001288BFF36F8F184F4FF000668A698A60E8
:1025C0003E6092F9BDE0506F0023536780F311889D
:1025D0001EF0100F03D00023E1EE103A03E002F1E9
:1025E0007C0090EC108AEFF3148323F0040383F350
:1025F0001488BFF36F8F02F1300090E8F01F8CF366
:10260000098802F1000004B505F0D0FEBDE80440E1
:10261000704700002C1E002004ED00E01EF0040FA7
:102620000CBFEFF30880EFF30980816911F8021CF9
:102630000229FFD001B505F0AAFE01BD42F8203CF9
:10264000009B0D4942F81C3C019B21F0010142F81E
:10265000183C029B42F8081C42F8143C4FF080736F
:1026600042F8043C002343674FF47D43203A02655F
:10267000C0F8BC30704700BFBF7F0000114B9B68A3
:1026800083421BD1EFF30580C0B94FF02002EFF376
:10269000118182F31288BFF36F8F1A7B22F002023E
:1026A0001A73EFF3148323F0040383F31488BFF346
:1026B0006F8F81F31188BFF36F8F70476FF0150034
:1026C000704700BF2C1E00200023E1EE103AEFF30C
:1026D000148323F0040383F31488BFF36F8FBFF3D5
:1026E0006F8F094B9860436E83F30B88104681F31C
:1026F0000988002163B681F31188BFF36F8F002230
:10270000002305F05CFC00BF2C1E002001B5EFF398
:102710000580A0F110004FEAC0000449014409C936
:102720009847BDE801400249084700004899000069
:1027300035270000044B99689869884203D0034903
:102740004FF080520A6070472C1E002004ED00E01C
:10275000154B9A6A12F0007F9A6A14BF1E201D2042
:1027600012F0807F9A6A18BF1F2012F4801F9A6AA5
:1027700018BF022012F4002F9A6A18BF212012F409
:10278000802F9A6A18BF222012F4003F9A6A18BF5D
:10279000232012F4803F9A6A18BF24206FEA024275
:1027A0006FEA12429A62704700ED00E010B5194BD3
:1027B0000246986A9C6A10F4805F14BF17201620A6
:1027C00014F4006F9C6A18BF1820A40509D5986BF3
:1027D000986A000404D51AB19A6A22F400429A62F7
:1027E00019200C4B9A6A12F4806F9A6A18BF1A204B
:1027F000D2050CD49B6A13F4005F18BF1C20054A55
:10280000936A43F47F43936200230B7010BD1B2037
:10281000F5E700BF00ED00E010B51C4B0246986ADA
:102820009C6A10F0100F14BF1120102014F0080F34
:102830009C6A18BF1220A40709D5586B986A000635
:1028400004D51AB19A6A22F080029A6213200F4BC3
:102850009A6A12F0010F9A6A18BF142012F0200F22
:102860009A6A18BF1520D40658BF9B6A074B9A6A0C
:10287000920642BF5A6A22F400525A629A6A42F0A1
:10288000FF029A6200230B7010BD00BF00ED00E054
:1028900070B5444B06465B6800259CB0C3F3080343
:1028A00085F31188BFF36F8F02F07F40B0F17F4F47
:1028B00011D102F00C0008280DD010074CBF0E46B5
:1028C00001250022033B8DF80720032B05D8DFE804
:1028D00003F01E5C60592E46F3E700249DF8073094
:1028E0009BB96822314602A805F07BFD099B002DAB
:1028F00053D0C3F3080222B96FEA53236FEA43238C
:102900000993204602A905F040FD1CB070BD254B7F
:10291000DA6A9107E1D4DA6A002ADEDBDA6A520069
:10292000DBD55A69B16942F480725A61BFF34F8FA7
:10293000BFF36F8F5A6931F8021C22F480725A611A
:10294000BFF34F8FBFF36F8F4DF60272914209D0E4
:102950009A6AD2B242B101200DF10701FFF75CFF84
:102960000446BBE73468B9E79A6A12F47F4F05D092
:1029700001200DF10701FFF719FFF1E79B6AB3F59D
:10298000803FAAD3FFF7E4FEEAE700200DF107013C
:10299000E4E700200DF10701EDE723F4FF7323F0D6
:1029A0000103ADE700ED00E0044B5A6942F010026C
:1029B0005A615A6942F480625A61704700ED00E042
:1029C000EFF30880EFF3098101B57246FFF760FF6E
:1029D00001BD00BF002320210348C2180133412B51
:1029E00082F80013F9D1704700E100E0002080F385
:1029F0001488BFF36F8F002080F30A8880F30B8860
:102A0000FFF7D2FB00200E490860BFF34F8F0D483F
:102A100080F3088800F02CF8202080F311880A4801
:102A20004FF40061401880F30988EFF3148002210D
:102A3000084380F31488BFF36F8FFFF75DFD00003C
:102A400094ED00E09032002050210020BFF34F8F22
:102A50000549064BCA6802F4E0621343CB60BFF33A
:102A60004F8F00BFFDE700BF00ED00E00400FA0556
:102A700072B6002383F313884FF0FF300C4A03F142
:102A800020010133102B42F82100F8D100234FF030
:102A9000FF30074A03F160010133102B42F8210097
:102AA000F8D162B6BFF34F8FBFF36F8F704700BF8F
:102AB00000E100E0084B9B6883420BD1EFF30583F4
:102AC00043B1064B5A6842F080525A605A6A22F467
:102AD00000425A6203F08CB82C1E002000ED00E08A
:102AE000014B1860704700BF34000020084B70B5E0
:102AF000C31A0D4607499B10044659434022064815
:102B000005F0ABFC2B4601462046BDE87040184757
:102B1000581D0020B76DDBB6BC980000402373B58C
:102B20000B4C0093041B0B460D460A49A41061434D
:102B30000646094A094805F0BDFC011E05DA304683
:102B40002B4602B0BDE87040184702B070BD00BF10
:102B5000581D0020B76DDBB621850000BC98000031
:102B600070B50022012104460520FFF7ABFC0F4899
:102B700001F002FC0E4B984215D106F0AAFB266923
:102B80000C49304605F076FA00280BDB0125356448
:102B90002469084904F11C0005F06CFA002801DBE7
:102BA0000020E56470BD6FF00400FBE7ED2B000032
:102BB0000000AD0BE09C000001460C2300224B43BB
:102BC00070B50848C41840331844D4E90E56A263BF
:102BD00005F030FC2DB132462B46BDE8704002486E
:102BE000184770BD581D0020BC98000010B1012886
:102BF00004D07047034B1B6C5B0701D1FFF7DCBFB0
:102C0000704700BF581D002008B54FF02003EFF3B8
:102C1000118183F31288BFF36F8F124A136843F058
:102C200002001060DA0708D481F31188BFF36F8FB8
:102C3000BDE80840012006F05ABB4FF05023D3F8FE
:102C40000C24D3F80C34DB07EED5074805F0F2FB73
:102C500081F31188BFF36F8FBDE808400020FFF7B4
:102C6000ABBF00BFA81D0020981D00201FB500228B
:102C70000123CDE902236B46084ACDF800D0CDF8F8
:102C800004D005F046FC002805DB4FF48042002309
:102C9000684602F085FC05B05DF804FB4185000044
:102CA00010B54FF02003EFF3118483F31288BFF3C4
:102CB0006F8F074A136823F00201DB07116002D40B
:102CC000012006F054FB84F31188BFF36F8F10BD11
:102CD000A81D00202DE9F041012207463749D1E81F
:102CE000EF3FC1E8E02F0028F9D133B93449354826
:102CF0004B60CB608A6005F0D0F97B1E012B2BD88E
:102D0000012F07D14FF05023D3F81C3403F00303F5
:102D1000022B21D006F081FC0546F8B92A4B1B781E
:102D2000E3B14FF0502302220646C3F808234FF0C8
:102D30005024DFF89880D4F81824D4F81834D2033B
:102D400016D503F00303022B01D0012F10D175B368
:102D500086F31188BFF36F8FBDE8F0814FF0200339
:102D6000EFF3118683F31288BFF36F8F0125DEE73F
:102D7000C5B13046FFF76AFBD4F81835DBB2012B3A
:102D8000D9D1D4F80421002AD5D00022C4F80421D6
:102D9000D4F804210222C4F818252022C8F8802182
:102DA000A360C8E70021212002F002FFE4E74FF012
:102DB00050230222C3F80423CEE700BF541D002095
:102DC000441D0020741D00204921002000E100E086
:102DD00008B5074806F0ADFB38B10648FFF780FE9E
:102DE0000448FFF795F8002008BD6FF01200FBE7DC
:102DF000F8980000F92D00000A2838B50446074D60
:102E000004D1AB680D2128465B689847AB6803483E
:102E10005B68E1B29847204638BD00BFF8980000D3
:102E2000004870479C9D0000024B0B60012313601B
:102E3000704700BFCC1D002000487047B89D0000BF
:102E400010B501220648114606F008FC06F000FB0A
:102E5000044C206006F0F9FA6060002010BD00BF4D
:102E6000D41D0020CC1D002070B50C46154606F080
:102E7000ECFA29460646204605F031FE08B3B4FBBD
:102E8000F6F306FB1343E3B9B5FBF6F306FB135366
:102E9000BBB9AE4201D9002070BD4FF0FF324FF0F8
:102EA000FF33094802F07CFB06F0CFFA06462046C5
:102EB00001F03AFEAD1B3444F9D1034802F04CFB5B
:102EC000E9E76FF01500E7E7D41D0020F8B50E46DE
:102ED0001946304617461C4605F001FE08B344EA81
:102EE000060515F003051CD1A4B14FF0FF324FF0D9
:102EF000FF330D4802F054FB24F00304A54206EB17
:102F0000050009D1094AD2F80034DB07FBD5064891
:102F100002F022FB0020F8BD795901F023FE0435B0
:102F2000ECE76FF01500F6E7D41D00200090035089
:102F3000C3780F2B14D9C96B0B480B0E13708B027F
:102F400000EA911003F47C030906034301F0FE41FB
:102F500010680B43054901400B4300201360704784
:102F60006FF08500704700BF00FF0300FF00008086
:102F700030B5406801F01F04057BB2F5001F85B035
:102F800044EA451405D1204601F0ACFC002005B010
:102F900030BD0025B2F5800FCDE9025514D1B3F153
:102FA000007F0CBF042305238DF808300023204642
:102FB000194602AA01F0C6FA204B984238D10121E5
:102FC000204601F045FCE1E7B3F1C06F25D0B3F135
:102FD000007F14BF012302238DF80830836823FA91
:102FE00001F111F00101E1D1B2F1A07FDED104F0D5
:102FF0001F03620903F180031DD1114A52F82330E7
:10300000DB07D3D40DF107052946204601F0CCFBA0
:103010000C4B984203D00395C8E70323DCE728460E
:1030200001F010FC054B9842F5D06FF00B00AEE7B5
:103030006FF01500ABE751F82330FFDE0000AD0B59
:10304000002584500400AD0B10B501F0EBFB0446E5
:1030500068B901F0BFFB084B98420AD121460748E6
:1030600001F09CFB224605210D20FFF72BFA0020E2
:1030700010BD6FF00400FBE70000AD0B81300000D5
:10308000430970B507D10B4B596821B101250C6874
:10309000094E854001B970BD8A682A4002D0304689
:1030A0004B6898471CB1236821461C46F2E723462B
:1030B000FAE700BFE41D0020D09800002DE9FF4191
:1030C000476801F01F053B7B144645EA43150E4651
:1030D00028460DF1070101F067FB14F4403F8046DC
:1030E0000DD1284601F024FC3C4B984503D19DF8B6
:1030F000070001F0A1FB002004B0BDE8F08100232F
:103100002846194602AACDE9023301F01BFA334BD7
:10311000984214D1804503D19DF8070001F08CFB43
:10312000A3034CD540F206332340B3F5837F1AD076
:103130000DD8062B18D005D8B3B1022B32D06FF0C2
:103140001500D9E7B3F5807FF9D101230CE040F2F7
:103150000222934228D0B3F5407F27D0B3F5007FF9
:10316000EDD1022300E007238DF8083084F480338A
:10317000C3F30043E0068DF809304CBF0323C4F3CA
:10318000401321038DF80A3012D501237A68B34029
:1031900093600022284602A901F088FA0F4B98425A
:1031A000A9D0CCE70423DFE70523DDE70323DBE732
:1031B000620341BF01237A68B340D360E9E7E306C5
:1031C0004FF000034CBF0324C4F340141A462846B2
:1031D00002A98DF8084001F0B5F9DFE70000AD0B5A
:1031E0002DE9F041534D544E00EB8101814202D153
:1031F0000020BDE8F081046804F07F03C4F3432796
:103200007F2B4FEA144408BF4FF0FF33192C00F214
:103210008280DFE804F00D13191C1F251C808080BC
:1032200080365F80808080808080808062777A7D39
:10323000C2F80C355C1C5AD10430D7E7C2F81435FB
:103240005C1CF9D000245BE0C2F80835F2E7C2F854
:103250001035F5E75C1CC2F80835EDD0002404E019
:103260005C1CC2F80C35E7D001245FEA531C55D131
:103270004FF0010EDFF8BCC00EFA03F8CCF80C805A
:1032800008E0C2F80835002FDAD15C1CD4D0002445
:103290000627A646D0F8008008F4005CBCF1000FB9
:1032A0001CBF01244FF0000E03F01F0C5B093BD143
:1032B00005EB8C0CDCF80032C8F3C118334043EA4C
:1032C000880343EA072343EA0E0343EA4403CCF8A6
:1032D0000032B1E7C2F80C35D5E7C2F86035B3F17A
:1032E000FF3F0468A8D0C4F38034002CBCD05C0934
:1032F00017D10124DFF83CC004FA03FECCF808E043
:10330000A646C7E7C2F86435E9E7C2F86835E6E7DC
:10331000C2F86C35E3E76FF085006AE70023DB60F5
:10332000FFDE00239B60FBE700230CF1800C53F8C9
:103330002C30F5E700258450F0F8FCFFF0B54B7910
:10334000012B26D0032B21D110258B79032B1DD1E6
:10335000CE790EB1012E19D10A7912B1022A15D1F6
:103360000E220B684468B3F5164F276867D02DD836
:10337000B3F5165F66D016D8B3F5966F64D00AD849
:10338000B3F5967F63D0B3F5167F63D06FF08500F9
:1033900054E00025D9E7B3F5166F5ED0B3F5965F1C
:1033A000F4D1384B3CE0B3F5E14F59D007D8B3F531
:1033B000615F57D0B3F5964FE8D1334B30E047F615
:1033C0001224A342E2D14FF4000329E0B3F5613F98
:1033D0004AD013D8B3F5963F49D009D84DF6C0244A
:1033E000A34246D0B3F5614FD0D14FF46B0317E041
:1033F000B3F5E13FCAD14FF0EB7311E0B3F5612FA4
:103400003AD008D8214CA34239D0B3F5E12FBDD131
:103410004FF0E86304E01E4CA342B7D14FF0805355
:103420000469C7F82435436835431B682A43C3F849
:103430006C25231D03C983E803000020F0BD4FF471
:103440001D03EDE7134BEBE74FF49E23E8E74FF442
:10345000A033E5E74FF41C33E2E74FF41D23DFE729
:103460000D4BDDE70D4BDBE74FF06C73D8E70C4BF2
:10347000D6E74FF46503D3E74FF07063D0E74FF022
:103480008063CDE700B0130000A04E0090D0030091
:1034900040420F000050270000C0750000F03A00C5
:1034A00000903A012DE9F7430021476806693C681E
:1034B0008146C4F800153060D7F80C8001AA404658
:1034C00005F0F5FB051E4CDB019BD8F800201979AF
:1034D0001868FFF785FE051E43DB4846311DFFF7E0
:1034E0002DFF054600283CD17B68990712D506F1CF
:1034F000180000F083FF1E4B984236D1307E04F155
:103500000C0204F5907105F084FE0120337E984092
:1035100000F02CFF0823C4F800353B7A53B9C4F8F7
:103520001031D4F810317369C4F834350123C4F86C
:10353000383523607B689A075CBF4FF48073C4F80A
:1035400004337B68DB0644BF4FF48003C4F80433C4
:103550003369C4F844350023C4F848350123A36017
:10356000E360284603B0BDE8F0836FF00405F8E798
:103570000000AD0BF8B504460D46076906F04DF89E
:10358000B0B92E4B1B789BB16426606805F0C5FB73
:1035900000BB012005F03BFE013EF6D100212120B9
:1035A00002F006FBF0E786F31188BFF36F8FF5E7B3
:1035B0004FF02003EFF3118683F31288BFF36F8F70
:1035C0006068314605F0A9FB90B986F31188BFF316
:1035D0006F8FEDE74FF02003EFF3118683F312882E
:1035E000BFF36F8F6068314605F097FB0028DAD093
:1035F0003B691D70626838691368C3F8440501208F
:10360000C3F848050020C3F82001D3F82051C3F8BF
:1036100058015268D3F85801D20608D508206268CC
:103620001268C2F800054FF48002C3F80423012297
:103630009A6081F31188BFF36F8FF8BD4921002094
:10364000F0B504690646A56C4768236D85B03DB9A1
:103650006BBB1946306905B0BDE8F04005F07BBC96
:10366000616C03BB31BB3A8E636CAA4228BF2A4609
:103670000091A2651BB1A36C002B18BF13460193E8
:10368000E36C02931BB1236D002B18BF134600227D
:1036900069463846039301F00FFC0E4B984217D051
:1036A0006FF00401D6E79D4228BF1D46DAE71D46AC
:1036B000616CD8E701F06043B3F1005FD3D0082D0F
:1036C00028BF0825206E2A4604F08BFE216ECAE72B
:1036D00005B0F0BD0000AD0B2DE9F04F99464368F1
:1036E0008DB001938B8892469A0407460E46046972
:1036F00000F111814FF0FF324FF0FF3304F1100061
:1037000001F04EFF6660D7F804B0D7F81080DBF800
:103710000830039398F85D301BB1D8F800309E4212
:103720007AD0B6F804E01EF4006F40F021811EF05C
:10373000090F40F01A81CEF34513082B40F0158194
:1037400033680293029A9E4B9A4240F20E8104AD76
:103750000BF10C0CBCE80F000FC59CE80F0085E8CE
:103760000F00DDE902329A4228BF1A46954B9A4271
:1037700015D2954B9A4200F2D780944B9A4200F2B0
:10378000D580934B9A4200F2D380924B9A4200F23A
:10379000D1809148914B9249824288BF0B461EF0DE
:1037A000020F09930EF0040300F0C680002B14BF33
:1037B000032302238DF82830CEF300138DF829302F
:1037C000DBF800301EF0020FD3F8082585484FF0D3
:1037D0000103CEF340014FEA521540F0B180002DB5
:1037E00040F0E9809340C36098F85D302BB15846B3
:1037F00001F026FB002388F85D30434658467A4A9C
:1038000004A901F0EFFA794B984240F09E80012321
:10381000C8F8006088F85D30012384F85C30019BB3
:10382000986B431C01D000F015F9BAF1000F40F07D
:10383000A280C4F834A00023A36304F1480204F179
:10384000380104F1340005F0D4FA6064B9F1000FD6
:1038500040F09A80C4F83C900023236404F15002A5
:1038600004F1400104F13C0005F0C3FA0023E064D8
:103870002068236348B183683BB10121083005F01B
:10388000CBFA2368186905F04FFE3846FFF7D8FEDB
:1038900000221346A06B83427FD100231946256C7A
:1038A000A94240F08180934238BF134626464FF428
:1038B000FA524FF0000802FB03F556F8203B4FF494
:1038C000004C1B684146B5FBF3F540F2E730C835C4
:1038D0004FF47A720023E5FB0C01FCF735FC02463D
:1038E0000B46304601F05CFE18B9256B15F1740FDC
:1038F0002DD10198C4F8588001F0A2FA84F85D80B7
:103900006FF07301386905F026FB304601F070FE58
:103910006FF073051BE0A369002B7FF4EBAE6368C7
:1039200099427FF4E7AEEEE6314B38E7314B36E7AC
:10393000314B34E7314B32E7003B18BF012339E705
:10394000002D3AD1934083604EE76FF00405236861
:103950009B8813F4005304D1636004F1100001F05C
:10396000FBFD28460DB0BDE8F08F6FF01505EEE7C2
:103970006FF08505EBE7DAF800306363002B3FF466
:103980005AAFDAF8043057E7D9F80030E363002B78
:103990003FF462AFD9F804305FE7616B01EBC3011C
:1039A000496801330A4476E7E06B00EBC1004068E8
:1039B0000131034474E7C960FFDE00239B60FBE72D
:1039C00047E8010000127A00FF083D007F841E00D6
:1039D0003F420F001FA107008FD0030048E80100FD
:1039E00090D00300002584508F8F00000000AD0BA5
:1039F00000093D0080841E0040420F0020A1070006
:103A0000012330B585B08DF80430022305460DF151
:103A100007008DF80830039000F014FF0C4B0446AB
:103A200098420FD10023284602AA01A900F08AFD7E
:103A3000A0420AD09DF8070000F0FEFE6FF00400DF
:103A400005B030BD6FF01200FAE70020F8E700BFC4
:103A50000000AD0BF8B5064605F0E3FC0021054675
:103A6000304600F0F5FE730906F01F0429D1174B0C
:103A700005F1A04503EB8404D4F80022144B05F5AE
:103A80005045134043F00C03C4F8003205F0D7FA58
:103A900007462B686BB10025304600F023FFD4F8B1
:103AA00000220B4B2846134043F00403C4F80032B5
:103AB000F8BD05F0C4FAC01B0628EAD96FF07305FB
:103AC000EAE70023803453F82430FFDE00258450D9
:103AD000F0F8FCFF0123834070B5DC430B4AD2E8C9
:103AE000EF1F01EA0405C2E8E65F002EF7D14FF4AC
:103AF000803282400648C0F80823BFF35F8FBFF3CF
:103B00006F8F0B4214BF0120002070BDF41D0020F8
:103B10000050015070B40E4922F07F46D1E90034C4
:103B2000D01AC31844F10004C1E90034A6F500130B
:103B3000B3F5400F09D2074B1B681A0A1B069C19E4
:103B4000054B42F10005C3E9004570BC02F08AB99B
:103B500010020020F81D002018020020D9B1012316
:103B60000D4A8340D2E8EFCF4CEA030CC2E8E1CF24
:103B70000029F7D14FF48033084A8340C2F8043358
:103B8000074BD3E8AF3FC340DB0742BF4FF40012FF
:103B9000044BC3F800217047F41D00200050015071
:103BA000F01D002000E100E00D4B1868010A00063E
:103BB000BFF35F8F0B4BD3F80435181841F10001A8
:103BC000B3F5801F0AD2084BD3E90023904271EB72
:103BD000030303D210F1807041F10001704700BF70
:103BE000F81D002000500150180200202DE9F04F70
:103BF00085B016461F4604469DF840A0FFF76AFFB1
:103C00000190FFF7D1FFB04271EB070352D23B4B5B
:103C1000301A67EB0101984271F100014DD2384B27
:103C200003EB0413D3E902239F4208BF964258D006
:103C30004FF48038334908FA04F8204626F07F4BC9
:103C4000C1F8488305F0EFF94FF00309584604F135
:103C50005005AD00ADB205F1502504F5A87305F58A
:103C600080350293029A20F07F4341F82230C1F858
:103C70004483D1F80435244AC01A033820F07F4029
:103C800090422ED9286868B1D1F80435A3EB0B0017
:103C900020F07F40B0F5000F039322D9204605F0B5
:103CA000C2F9039BBAF1000F07D109EB030009F138
:103CB0000109D7E7BAF1000F09D06FF015052046CA
:103CC0000199FFF74BFF284605B0BDE8F08F0123AF
:103CD0000E4AA340D2E8EF0F1843C2E8E10F0029D3
:103CE000F8D107490E982301C8500F9B01EB04122D
:103CF0000025C2E902675360E1E700BF01008000D0
:103D00000002002000500150FDFF7F00F01D002048
:103D10007FB500254FF0FF304FF0FF31194C1A4BA3
:103D20000226C4F80833C4F84833184BC4F80855C1
:103D3000C3E902014FF480334FF40012C4F8043396
:103D4000134B0121C4F804631520C3F880212A46CF
:103D5000FEF7B8FB1520FEF785FB01230D4AA36093
:103D6000236013600C4B0D4A009328460023CDE9D5
:103D70000155FFF73BFF3046FEF7ACFF284604B085
:103D800070BD00BF0050015003000F000002002072
:103D900000E100E0F41D0020153B0000FFFF7F0064
:103DA0002DE9F7432E4BD3F8042390070BD5D3F816
:103DB000042142B10022C3F804212A4AD3F8043175
:103DC000136801331360264AD2F80433D90327D588
:103DD000254BD3E8EF1F21F00100C3E8E40F002CCE
:103DE000F7D1CB0702D4D2F84031CBB100251C4C1F
:103DF000C4F84051D4F84031FFF7D6FE4FF020030D
:103E0000EFF3118283F31288BFF36F8F174BD3E95F
:103E10000267B042B94106D282F31188BFF36F8FB7
:103E200003B0BDE8F0834FF0FF38D3E900104FF046
:103E3000FF391D60C3E902894FF48033C4F8483369
:103E4000C4F84051D4F8403182F31188BFF36F8F2A
:103E50000029E5D0009032463B4628468847DFE7F8
:103E600000500150F81D0020F01D0020000200202D
:103E70001FB5431C22D0012822DD124A124B90426A
:103E8000D4BF04461C46FFF78FFE104B0E49D3E902
:103E90000023801AB0F5000F28BF002404448C4290
:103EA00028BF0C4600200A49A218CDE90100009164
:103EB00043F10003FFF79AFE04B010BD024CE2E7A5
:103EC0000124E0E7FEFF7F00FFFF7F0010020020DB
:103ED000153B000008B5FFF767FE024B1B68C01AD0
:103EE00008BD00BF10020020012310B5074C1520AB
:103EF0006360FEF7C5FA4FF40012054BC4F80833AF
:103F0000C4F84833034BC3F8802110BD0050015062
:103F100003000F0000E100E030B5816885B0103982
:103F200021F00704054604F003FA10220146684612
:103F300004F062FA10226846064904F052FA10238F
:103F40006A462146284604F0C1F9003818BF01200E
:103F500005B030BD7CA0000030B50D46816887B04B
:103F6000102302AA1039044604F09BF9002802DA53
:103F7000012007B030BD1022204602A905F086F8C6
:103F800000283AD110221E4902A804F01AFA00288B
:103F90000CBF012302232B70204605F063F8012398
:103FA00001460DF10702204604F07BF90028DFDB13
:103FB0009DF80730204603F00F021B096A702B7131
:103FC00001220DF1070105F061F810B96B78042B9F
:103FD00003D901236B7000232B71A2682046183A85
:103FE00022F00702083AA91C05F063F80028BFD1A7
:103FF0002046E91C05F0B6F8BBE70323CBE700BF7A
:104000007CA000007FB5264D4400694655F8240089
:1040100005F0AEF8002835D1013455F8240002A986
:1040200005F0A6F801282BD103238DF808308DF870
:104030000B3000249DF800509DF80860194A29466D
:10404000107805F015F818B33146507805F010F8DF
:10405000F0B19378042B03D09DF80310994217D147
:10406000D378042B03D09DF80B10994210D113790B
:10407000042B09D15079831E022B03D804B070BDE4
:104080000028D6D0FF20F9E79DF802109942F1D020
:104090000134032C02F10602D1D10120EEE700BF6A
:1040A000E49E000034A2000008B5EFF31083012B5A
:1040B0000C4A07D1126ABFF34F8F511C4A424A4142
:1040C000104608BD05F081F800B172B6126ABFF360
:1040D0004F8F531C5A425A4105F077F80028EFD011
:1040E00062B6EDE70080FF0008B5EFF31083012B07
:1040F0000B4A06D1D269BFF34F8F02F0010210467E
:1041000008BD05F062F800B172B6D269BFF34F8FF7
:1041100002F0010205F059F80028F0D062B6EEE78F
:104120000080FF0010B505F050F830B14FF050237B
:104130000022C3F81421C3F8182105F055F828B15E
:104140000122644BC3F8382AC3F878254FF47F0264
:10415000D2F83031D2F83421BFF34F8FC3F30B03C1
:10416000092B05D1012A1EBF01225A4BC3F878251D
:1041700005F03AF818B10E22574BC3F8E42E05F0BB
:1041800024F830B10022534BC3F80C270122C3F8A6
:1041900010270022D30003F57F03D3F80013BFF3E9
:1041A0004F8F013108D0D3F800130132D3F8043314
:1041B000B2F5807F0B60EDD1EFF31084FFF794FF31
:1041C00000284DD0BFF34F8F444BD3F80024012A71
:1041D000FBD1C3F80425D3F80024012AFBD1012C1C
:1041E00003D004F0F2FF00B172B6FFF77DFF58B1C3
:1041F0003B4AD36923F00103D361BFF34F8F374AA2
:10420000D2F80034012BFBD1FFF74EFF68B1344ADE
:10421000136A23F0FF0343F020031362BFF34F8FB1
:104220002E4AD2F80034012BFBD1012C03D004F02C
:10423000CCFF00B162B60022284BC3F80425D3F8A6
:104240000024012AFBD1BFF34F8F2649264BCA68B1
:1042500002F4E0621343CB60BFF34F8F00BFFDE772
:10426000FFF722FF0028ADD11E4AD2F88C3043F46C
:104270004063C2F88C304FF47F03D3F83021D3F879
:104280003431BFF34F8FC2F30B02092A16D1013B21
:10429000022B02D8154AD35C83B111481449036834
:1042A0000E4A8B420CBF5A230023C2F8103EC36A49
:1042B0008B420CBF5A230023C2F8003E094AD2F8B1
:1042C000883043F47003C2F88830BFF34F8FBFF3D8
:1042D0006F8F10BD0040005000A0035000900350AD
:1042E0000080FF0000ED00E00400FA0546A2000097
:1042F000FA50FA5030B50468ACB1B4FA84F3012234
:10430000C3F11F03DBB29A4024EA0202D0E8EF5F58
:10431000A54204D1C0E8EC2FBCF1000FF6D1EAD1E0
:1043200002480B7030BD0248FCE700BF0000AD0B37
:104330000200AD0B10B50368CB40DB0710D401239E
:104340008B40026843EA0201D0E8EF4F944204D167
:10435000C0E8EC1FBCF1000FF6D1F2D1014810BD4E
:104360000148FCE70000AD0B0400AD0B014BC3F8A6
:104370000405704700700150044B1A7922B90122DC
:1043800018601A710248704702487047FC1D0020EF
:104390000000AD0B0C00AD0B4FF0502310B5D3F85F
:1043A000002152B10020C3F80001D3F800210122FE
:1043B000C3F80823104B1B6898474FF05023D3F8DD
:1043C000042182B10022C3F80421D3F80421D3F8D8
:1043D0001824D3F81824022102F00302012A03D181
:1043E000C3F818159A6010BDC3F80813024B0120DA
:1043F000BDE810401B681847FC1D0020014601481D
:10440000FFF778BFD4000020036803F01F025B09A8
:104410000260024818BF0020704700BF002584508A
:10442000034BC0B2083033F81000C0F3401070479F
:10443000D8000020034BC0B2083033F81000C0F39E
:1044400040007047D8000020034BC0B2083033F85A
:104450001000400B704700BFD800002070B50D4C15
:1044600000F1080334F813300546DA050E4607D587
:10447000C3F3432304EBC302526854F83330984724
:10448000A3682BB131462846E268BDE87040184762
:1044900070BD00BFD800002010B4134AC0B208306D
:1044A00032F81030D9051CD5C3F3432123F4F85357
:1044B00022F81030002002F10E0434F8023F13F409
:1044C000807F03D0C3F3432399420AD001302028D0
:1044D000F3D1002342F8313004485DF8044BFFF774
:1044E00029BF5DF8044B7047D80000202C01002044
:1044F00001460020F0B5012506460F4A0F4C02F197
:104500003043A3F551439B0805FA03F3194204D045
:10451000176817B11660176818430432A242EED12B
:10452000074BD3F87C2132B10022C3F87C21D3F8A9
:104530007C3140F00040F0BD00D1005020D100504F
:1045400000D000502DE9FF41044690461D4601B3BE
:10455000FFF770FF18B12046FFF762FF28BB00236A
:104560000DF10F02CDE900338DF80E308DF80F30CC
:1045700020460B460DF10E0104F0FBFE4749E3B265
:10458000083331F8132022F0020242F0010221F830
:104590001320B8F1000F32D0204698F80060D8F808
:1045A0000420FFF747FF10B1F2B13D4829E03B4F2F
:1045B000E0B2083037F8101021F02001C904C90C0E
:1045C00027F8101082B1032EEFD8D8F8043093F8F2
:1045D00000C06246920002F1A04202F550429EB92C
:1045E000C2F81065C2F810652C49E3B2083331F8FF
:1045F000132022F01C0242EA860221F813201DBB80
:10460000284804B0BDE8F081D2F8103541EA4C31B9
:1046100023F00303C2F81035D2F8103541F0200121
:1046200023F4473323F44073C2F81035D2F810E571
:10463000230203F4F85343EA0E0343EA0643C2F8A5
:10464000103527F81010CFE72046D5E90067FFF7AF
:1046500023FF002ED4D0114DD5E90023964201D17D
:104660009F4219D010480DF10F01FFF743FE0D4B8B
:104670009842C6D19DF80F20E0B205EBC203083086
:104680005F6035F8103045F8326043EA422343F466
:10469000807325F81030B3E70022EDE7D800002042
:1046A0000400AD0B0000AD0B2C010020F0B504465A
:1046B000164685B029B3FFF7BDFE20B92046FFF7A7
:1046C000AFFE002862D1324FE5B2083537F8153019
:1046D00013F01C0F02D04B78012B57D001238DF81B
:1046E0000F3000234A1CCDE9001320468B1C0DF12E
:1046F0000F0104F03EFE37F8153043F0030327F8AE
:10470000153016B9234805B0F0BD2046FFF792FEDC
:1047100000283BD096F800C0002361461C4FE5B24C
:10472000083537F81500890020F0200001F1A0417C
:10473000C00401F55041C00CC1F8103527F8150030
:10474000C1F810357278002ADCD0D1F81035B6786F
:1047500023F4981323F4F853C1F8103512042302FC
:10476000D1F810E502F4403203F4F8531343320554
:1047700043EA0E0302F4801240EA4C30134340F047
:104780002000C1F8103527F81500BBE70248BAE74A
:10479000D80000200000AD0B0400AD0B014BC3E9B5
:1047A00002017047D800002008B50246FFF738FE26
:1047B00040B1054BD2B2083233F8123003485B0BDC
:1047C0000B7008BD0248FCE7D80000200000AD0BCC
:1047D0000400AD0B70B50F4C94F85860BEB90E4D87
:1047E0004022314604F1100003F006FE0D20C5F80A
:1047F0007C61D5F87C31FDF735FE4FF00043C5F8FC
:1048000004330123054884F85830636570BD0448BB
:10481000FCE700BFD800002000D000500000AD0B26
:104820000500AD0B034B93F85800003818BF01206A
:10483000704700BFD800002001460148FFF77ABD4D
:104840002801002001460148FFF754BD280100203F
:1048500037B50446FFF7E4FD08B32046FFF7EAFD4D
:104860000546E0B92046FFF7EFFD03B29B0003F1D8
:10487000A04202F5514203F1A043156003F55043F5
:104880001268D3F8102542F00102C3F8102521B1B7
:104890000123124A8340C2F8043303B030BD104AEA
:1048A000E3B2083332F81330C3F38203042B11D080
:1048B000052B11D001A80194FFF7A6FD019B01690A
:1048C000D94001F001010231204603B0BDE830407B
:1048D00004F098BD0321F7E70221F5E700D000506E
:1048E000D800002008B50246FFF79AFDC0B1104677
:1048F000FFF7A0FDA0B91046FFF7A6FD01230B4A64
:104900008340C2F8083303B29B0003F1A04303F5D0
:104910005043D3F8102522F00302C3F8102508BD38
:104920000021BDE80840104604F06CBD00D00050E6
:1049300073B51B4EC5B2083536F815300446DB0793
:104940002BD5FFF7CFFF2046FFF76AFD68B1204661
:10495000FFF77AFD002203B29B0003F1A04303F5A9
:104960005043C3F81025C3F810252046FFF794FDE7
:10497000002301A826F815300194FFF745FD019B9F
:1049800000EB8300D0F80022064B134043F00203F3
:10499000C0F80032044802B070BD0448FBE700BF15
:1049A000D8000020F0F8FCFF0000AD0B0400AD0BB8
:1049B0002DE9F74F4E4BD3F80403C0B240F000404E
:1049C000FFF796FD051E14DA4A4FDFF82C913B6A7B
:1049D00000933B624FF00108009C84B94FF0004007
:1049E000FFF786FD3B6A00933B62002BF2D125F076
:1049F00000450124002D63D103B0BDE8F08F94FA87
:104A0000A4F4B4FA84F4E00804F1080339F813A01C
:104A100004F007021DF8003008FA02F223EA02034C
:104A20000DF8003001A80194FFF7EEFC019B4FEA5E
:104A30009A01803350F82360CAF3820B4B07DA46A1
:104A4000C6F3014621D520465946FFF707FD01A8C8
:104A50000194FFF7D9FC019BF6B2803350F8233064
:104A6000C3F301439E4207D10021204604F0CAFC53
:104A70003146204604F0C6FC01A80194FFF7C4FCAF
:104A8000019B08FA03F30362A6E7022E0CD103216F
:104A9000204604F0B7FC0BF00503012BECD1514686
:104AA0002046FFF7DBFCE7E70221204604F0AAFCE2
:104AB000BBF1030FF3D0032EDED1BBF1020FEDE704
:104AC00095FAA5F3B3FA83F304FA03F29B0003F11A
:104AD000A04303F55043D3F81005D3F81015C0F3E5
:104AE0000420C1F3014125EA0205FFF7B7FC81E785
:104AF00000D0005000258450D80000200022034B35
:104B0000C3F88425C3F80425704700BF0090035004
:104B1000044AD2F80834DB07FBD50160BFF35F8F8E
:104B2000704700BF0090035008B5C0F30B0383B972
:104B30000222094BC3F88425C3F804254FF0FF3245
:104B40000260D3F80024D207FBD5FFF7D7FF034854
:104B500008BD0348FCE700BF009003500000AD0B08
:104B60000A00AD0B012208B5054BC3F88425C3F834
:104B70000425FFF7CDFFBDE80840FFF7BFBF00BF2A
:104B800000900350430904D10123034A83409360FA
:104B9000704700239B60FFDE002584500C4B984239
:104BA00013D00AD80B4B98420FD00B4B98420CD025
:104BB0000A4BC31A584258417047094B984204D0D7
:104BC000084B984201D0084BF3E70120704700BF23
:104BD00040420F0090D0030020A1070048E80100E8
:104BE00000093D0000127A0080841E00431C14D08E
:104BF00000F01F0340090BD1084A02EB8302D2F8F0
:104C00000012074B0B4043F00203C2F8003270471A
:104C10000022803352F82330FFDE70470025845095
:104C2000F0F8FCFF430904D10123034A8340D36019
:104C300070470023DB60FFDE0025845038B5144642
:104C4000421C054616D0012902D1A3B1FFF79AFFF5
:104C500005F01F036D0911D10B4A41EA840402EBF0
:104C60008303D3F80002094A0240144344EA410195
:104C7000C3F8001238BDFFF7D5FFE9E70022803303
:104C800052F82330FFDE00BF00258450F0F8FCFF0F
:104C90002DE9F8434C4B4D6907469D420C4690F870
:104CA00004907DD071D8494B9D427CD0484B9D42A9
:104CB0007CD0484B9D420CBF4FF000754FF08045B3
:104CC0002422DFF81C81E07E02FB0983997F60F3D8
:104CD000000199773B79217C02FB0383D977E67E3B
:104CE000EEB9237E3246012B94BF0023012301211C
:104CF0002068FFF7A3FF3346324601216068FFF7C3
:104D00009DFF33463146A27EA068FFF797FF237CC4
:104D100032460121E06883F00103FFF78FFF242270
:104D200002FB0989E368C9F82030237C89F81F3029
:104D3000267FA07C217E637E3A6846B9D4E900C60E
:104D4000A468C2F808C5C2F80C65C2F81045003B5B
:104D500018BF01230229C2F8C005C2F824552BD080
:104D600003292CD0012901D143F00203C2F85435A4
:104D700024223B79534358F803301BB33868BDE80D
:104D8000F84340F30730FDF76DBB134B9D4210D045
:104D9000124B9D420CBF4FF000454FF080458FE70E
:104DA0004FF080558CE74FF0806589E74FF0006544
:104DB00086E74FF0005583E743F00403D6E743F05E
:104DC0000603D3E7BDE8F88340420F0090D003000C
:104DD00020A1070048E8010080841E0000127A002C
:104DE000041E0020F8B5054624262F79104C7E437A
:104DF00004EB060C9CF81CE0BEF1000F13D1A2518D
:104E0000CCF8043031B14869FFF7C8FE68B12846D4
:104E1000FFF73EFF242303FB0744002363770123AE
:104E200004482377F8BD0448FCE70448FAE700BFCC
:104E3000041E00200000AD0B0500AD0B0400AD0BFF
:104E40002DE9F041044606790068194D40F307301A
:104E5000FDF716FB24237343EB5853B12368154A1F
:104E600006EBC601C3F80823206805EB810104F0B6
:104E700045FB2368242404FB0654D3F80805D3F823
:104E80000C75D3F81085A37FDB070AD4FFF7AEFEBD
:104E90004046FFF7ABFE3846FFF7A8FE206AFFF753
:104EA000A5FE242303FB065500232B77BDE8F081E4
:104EB000041E00205201080024232DE9F043077945
:104EC000524D7B439046EA180E46517F814685B08D
:104ED000002940F09880EB5823B118F0140F04BF5C
:104EE00001235377242496E80F0004FB075404F1B0
:104EF0000C0C8CE80F00206A431C03D0E37FD3B175
:104F0000FFF740FE3368D9F8004023B103F0604357
:104F1000B3F1005F06D1B36883B103F06043B3F12E
:104F2000005F0BD02423002203FB075338485A7735
:104F300005B0BDE8F083FFF775FEE3E718F0010365
:104F400018BF0123C4F8503518F0020318BF01231D
:104F5000EC46C4F8403596E80F008CE80F00039B40
:104F6000C4F84405C4F84815C4F83425C4F83835E5
:104F70000023C4F81831D4F818310723C4F80035D9
:104F800024237B4318F0080F05EB03021DD10121F8
:104F9000E858216158B9D4F81831002BFBD062468B
:104FA0004021204604F06CFA24237B43EA18EB5896
:104FB00003BB106A411C12D107EBC707204605EB63
:104FC000870104F09BFA1348B2E7EB5893B9106AD3
:104FD000431CF8D0D37F53B1FFF724FEF3E7D37F10
:104FE00013B1FFF71FFEE7E7FFF7CCFDE4E7FFF79C
:104FF000C9FDE8E7402318F0040F14BFC4F80833D4
:10500000C4F80433DFE7044892E700BF041E002021
:105010000A00AD0B0000AD0B0B00AD0B10B540212D
:105020000F4A104804F02CFAC0B10F4C206A431C00
:1050300003D0E37F7BB1FFF7F5FD637F1BB10A4926
:10504000084804F05BFA002323720848D4E90031D1
:10505000BDE810401847FFF795FDEEE710BD00BF13
:10506000101E002000B00050041E00200C1E002066
:10507000104B70B553F82040013053F82060A64221
:1050800000D870BDD4E9003595B153B12846984792
:1050900038B10028B8BF4042FF28A8BFFF20EB6806
:1050A0001870EA68537843F0010353700834E6E758
:1050B0009847FBE7F09E0000012208B5094B03204A
:1050C0001A70FFF7D5FF00F051FF0420FFF7D0FF63
:1050D00000F030F9FCF70CF8034A137B23F00103CE
:1050E000137308BD49210020E002002008B50348E1
:1050F000034A0021121A04F042FA08BD00020020FF
:105100004C210020C02370B5174E012203FB00661E
:10511000002386B0CDE904230F220193CDE90232AA
:1051200018234FF4A0720446104D114903FB00559B
:1051300002FB00110F4B3046009500F0CBF8737B5B
:105140002C7423F0040373730B4B013403EBC4235F
:105150006B600A4BEE60D3E8EF1F0131C3E8E21F3A
:10516000002AF8D106B070BD200200202C1E0020BD
:10517000502900202796000050210020281E0020E2
:1051800080B50020B6B0FFF773FF2B4B03F500622C
:1051900082F3088883F30A880024E023274D284EF1
:1051A00085F82230EC772C766C76AC7685F820404A
:1051B0006B6A244F43F4E0236B6285F82340FDF7CC
:1051C000F3FBFDF72FF94FF0FF33AB62EB6240F2D8
:1051D0000113ADF8243006ABB360CDE91F4422942F
:1051E00004F0A6F90120FFF743FF0220164DFFF758
:1051F0003FFF00F053FC154BB561059301231449A3
:105200004FF40062CDE9034328463B46CDE9014413
:10521000009400F05FF806466A7B284622F00402FC
:105220006A7304F061FA2046FFF76CFF3A46314694
:105230002846FDF749FA00BF5021002000ED00E0AC
:105240002C1E0020B9500000E00200207DA20000CA
:10525000902A0020002038B5054C064DAC4200D302
:1052600038BD204604F08FF90028F9DB1C34F5E73F
:10527000AA010020AA01002073B50C464FF02005BA
:10528000EFF3118185F31288BFF36F8F45695DB12C
:1052900025602B684361836901338361002081F3BA
:1052A0001188BFF36F8F11E052EA030603D16FF04C
:1052B0000B002560F3E7CDE900230246083000F03B
:1052C000F7FA18B9024B9B685B69236002B070BDA6
:1052D0002C1E00202DE9FF410E9E00F1580506739B
:1052E0000426C0E916550025044646730D9EC0E904
:1052F00006558673D61D0C9A26F00706C0E91916C6
:105300008560C573C56602920B9A01EB060801928F
:105310000A9A00924246FDF791F9054B65659B6834
:1053200003B11B6F4046236704B0BDE8F08100BFA6
:105330002C1E00202DE9F043294C2A4D87B026462B
:10534000AE4204F12C040FD300F078FB4FF400467A
:1053500040F2E737224CDFF89090AC4220D307B000
:10536000BDE8F04300F07EBB54F8043C059354F8CC
:105370000C3C049354F8103C039354F8143C0293EF
:1053800054F8183C019354F81C3C009354E9092349
:1053900054E90B01FFF79EFF54F82C3C5E65CEE705
:1053A000636A5A1C0DD00021384623EAE373C3FB1D
:1053B000060151EAC333D4F8008004D1404600F01E
:1053C000EDFA2C34C9E74FF47A720023FAF7BCFEE9
:1053D00002460B4608F11800494600F0CDFCF0E704
:1053E000509B0000509B00004D9700002DE9F341B9
:1053F000044617461E464FF02003EFF3118883F34F
:105400001288BFF36F8FC368334A7BB1806891689D
:10541000884219D057EA060318D188F31188BFF3E0
:105420006F8F6FF00F0002B0BDE8F081916891F9C5
:105430000E100133E36093682161A36088F3118843
:10544000BFF36F8F0020EEE72169F2E791F90E10AC
:1054500090F90E306FF07E029942A8BF1946914232
:10546000B8BF11468B422EDD04F0E9F8054622460E
:105470004146CDE90076194800F01AFA0028E1D03B
:105480004FF02003EFF3118683F31288BFF36F8F81
:10549000A068D0B1236821699C420AD04BB193F92E
:1054A0000E309942A8BF19466FF07E039942B8BFEB
:1054B000194604F0C4F840B13146084800F05CFADF
:1054C0006FF00A00AFE70025D1E7002DF4D186F395
:1054D0001188BFF36F8FF3E72C1E00204A210020B4
:1054E00038B5836804466BB3194A926893422CD14D
:1054F000C368012B03D9013BC360002038BD4FF0C6
:105500002003EFF3118583F31288BFF36F8F0169D6
:10551000806804F094F8204604F01CF9A06058B1AB
:1055200090F90E2022610022826704F0DDF82946FE
:10553000084800F021FAE0E7E06085F31188BFF346
:105540006F8FDAE76FF01500D8E74FF0FF30D5E73F
:105550002C1E00204A21002038B504464FF02003BD
:10556000EFF3118583F31288BFF36F8F04F0F2F825
:1055700048B10022826704F0B7F82946BDE83840F8
:10558000064800F0F9B9D4E902329A4218BF013353
:10559000A36085F31188BFF36F8F38BD4A210020C7
:1055A00013B54FF02004EFF3118184F31288BFF399
:1055B0006F8F846844B1013C846081F31188BFF32C
:1055C0006F8F002002B010BD52EA030406D181F3B0
:1055D0001188BFF36F8F6FF00F00F3E7CDE9002361
:1055E0000246024800F064F9ECE700BF4A210020BF
:1055F00070B504464FF02003EFF3118583F3128852
:10560000BFF36F8F6FF00A06204604F0A3F818B1BD
:10561000866704F069F8F7E7A0602946BDE87040A6
:10562000014800F0A9B900BF4A210020C3897F2B9F
:1056300012D80A4B1B6863B1094B90F90E201B6806
:105640009A4209DB437BDB0606D1064BC31A18BF1F
:10565000012303F0010070470023FAE75C1E0020DD
:10566000581E0020200200200122044BC01A044BC7
:10567000C0105843034B1A54704700BFA0030020CA
:10568000ABAAAAAA4A21002070B50E4B0E4C1E7C74
:10569000054606EB460304EBC304204604F08CF8F1
:1056A00000220A4B28469A55FFF7C0FF48B1084B25
:1056B0002046BDE870401A680649013AD31700F049
:1056C0005BBB70BD2C1E0020A00300204A210020DF
:1056D0005C1E00206956000038B50D4D2B4653F86E
:1056E0001C4F9C4200D004B9EC68AB6838B95A7BB7
:1056F000D20604D1A26912B9DA897F2A05D89C4260
:1057000002D02046FFF7C0FF2346AB6138BD00BF83
:105710002C1E002070B590F90D200146002A437B15
:1057200004DA03F07F03437303F0A4FF154A4B7BB5
:10573000104663F07F034B7350F81C3F146A83429A
:1057400008BF002323B9C1E90004216011620CE005
:1057500091F90E5093F90E60B5420ED0AE420CDDB9
:105760005868C1E90030016059609068BDE8704038
:10577000431A58425841FFF7AFBF9C42E3D01B6821
:10578000E0E700BF2C1E002070B490F90D30427B82
:10579000002B29DBD30627D183692BBB134962F089
:1057A0007F0242730A4652F81C4F944218BF2346A8
:1057B0000C6A23B9C0E90024206008620CE090F96B
:1057C0000E5093F90E60B5420AD0AE4208DD5A6819
:1057D000C0E9003210605860002070BCFFF77CBF49
:1057E000A342E7D01B68E4E770BC70472C1E002082
:1057F00008B590F90D200146002A437B04DA03F036
:105800007F03437303F036FF044B9868431A5842F2
:105810005841BDE80840FFF75FBF00BF2C1E0020C5
:1058200070B515461C46064603F036FFB4F1FF3F3F
:1058300008BFB5F1FF3F08D02A46234606F11800FD
:105840000249BDE8704000F097BA70BD4D97000066
:1058500038B54FF02003EFF3118583F31288BFF3BF
:105860006F8F104B104A9C681068A04206D1FFF75A
:105870000BFF85F31188BFF36F8F38BD00211B7CB0
:1058800011600A4AD35C002BF3D02046FFF7CEFE0E
:105890000028EED0637BDB0602D12046FFF73AFFFB
:1058A0002046E4E72C1E0020541E00204A21002040
:1058B00070B50C480C4D86680C462E601146DDE92B
:1058C00004234FF02006EFF3118586F31288BFF30F
:1058D0006F8F8068FFF7A4FF2046BDE87040FCF79B
:1058E00039BE00BF2C1E0020541E0020F8B504460F
:1058F0004FF02003EFF3118683F31288BFF36F8F0D
:10590000437B49B2DA0619D18569BDB903F07F033B
:10591000437303F0AFFE437B164A63F07F03437388
:105920001346817353F81C0F984218BF0546106A3E
:105930005DB9C4E900300460146211E00020A17375
:1059400086F31188BFF36F8FF8BD95F90E70B942D9
:105950000BD08F4209DD6B68C4E900531C606C609A
:105960000120FFF7B9FE0120EAE7A842E1D02D6847
:10597000DEE700BF2C1E002049B9EFF3058030B9E7
:10598000054B9A699B689A4201D0FCF7E3BD81F30D
:105990001188BFF36F8F70472C1E002010B54FF099
:1059A0002002EFF3118482F31288BFF36F8F427BE2
:1059B000510704D484F31188BFF36F8F10BD22F018
:1059C00004024273FFF7E0FE2146BDE810400148A3
:1059D000FFF7D2BF4B21002070B50446183003F00A
:1059E000EBFE4FF02003EFF3118683F31288BFF331
:1059F0006F8F94F90D20637B002A05DA03F07F0393
:105A00002046637303F036FE0B4D637BA86843F0BA
:105A100010036373031B58425841FFF75DFE86F382
:105A20001188BFF36F8FAB68A34203D1BDE870400C
:105A300003F0B8BE70BD00BF2C1E00204FF0200345
:105A4000EFF3118183F31288BFF36F8F044B9A68D1
:105A5000D37B013BD37381F31188BFF36F8F704702
:105A60002C1E002010B54FF02003EFF3118483F3B8
:105A70001288BFF36F8F084B00209A68D37B0133E5
:105A8000D373FFF729FE84F31188BFF36F8FBDE84E
:105A9000104003F087BE00BF2C1E0020024B03F114
:105AA0001C02C3E9072270472C1E0020F8B54FF0F6
:105AB0002003EFF3118583F31288BFF36F8F194929
:105AC0008868437B03F07F03437303F0D3FD0846EC
:105AD0008B685A7B62F07F025A7350F81C2F0C6A55
